:020000040000fa
:080000000002040000000000f2
:020000040000fa
:04000800dc02000016
:020000040000fa
:04000c00dc02000012
:020000040000fa
:04001000dc0200000e
:020000040000fa
:04001400dc0200000a
:020000040000fa
:04001800dc02000006
:020000040000fa
:04001c00dc02000002
:020000040000fa
:04002000dc020000fe
:020000040000fa
:04002400dc020000fa
:020000040000fa
:04002800dc020000f6
:020000040000fa
:04002c00dc020000f2
:020000040000fa
:04003000dc020000ee
:020000040000fa
:04003400dc020000ea
:020000040000fa
:04003800dc020000e6
:020000040000fa
:04003c00dc020000e2
:020000040000fa
:04004000dc020000de
:020000040000fa
:04004400dc020000da
:020000040000fa
:04004800dc020000d6
:020000040000fa
:04004c00dc020000d2
:020000040000fa
:04005000dc020000ce
:020000040000fa
:04005400dc020000ca
:020000040000fa
:04005800dc020000c6
:020000040000fa
:04005c00dc020000c2
:020000040000fa
:04006000dc020000be
:020000040000fa
:04006400dc020000ba
:020000040000fa
:04006800dc020000b6
:020000040000fa
:04006c00dc020000b2
:020000040000fa
:04007000dc020000ae
:020000040000fa
:04007400dc020000aa
:020000040000fa
:04007800dc020000a6
:020000040000fa
:04007c00dc020000a2
:020000040000fa
:04008000dc0200009e
:020000040000fa
:04008400dc0200009a
:020000040000fa
:04008800dc02000096
:020000040000fa
:04008c00dc02000092
:020000040000fa
:04009000dc0200008e
:020000040000fa
:04009400dc0200008a
:020000040000fa
:04009800dc02000086
:020000040000fa
:04009c00dc02000082
:020000040000fa
:0400a000dc0200007e
:020000040000fa
:0400a400dc0200007a
:020000040000fa
:0400a800dc02000076
:020000040000fa
:0400ac00dc02000072
:020000040000fa
:0400b000dc0200006e
:020000040000fa
:0400b400dc0200006a
:020000040000fa
:0400b800dc02000066
:020000040000fa
:0400bc00dc02000062
:020000040000fa
:0400c000dc0200005e
:020000040000fa
:0400c400dc0200005a
:020000040000fa
:0400c800dc02000056
:020000040000fa
:0400cc00dc02000052
:020000040000fa
:0400d000dc0200004e
:020000040000fa
:0400d400dc0200004a
:020000040000fa
:0400d800dc02000046
:020000040000fa
:0400dc00dc02000042
:020000040000fa
:0400e000dc0200003e
:020000040000fa
:0400e400dc0200003a
:020000040000fa
:0400e800dc02000036
:020000040000fa
:0400ec00dc02000032
:020000040000fa
:0400f000dc0200002e
:020000040000fa
:0400f400dc0200002a
:020000040000fa
:0400f800dc02000026
:020000040000fa
:0400fc00dc02000022
:020000040000fa
:04010000dc0200001d
:020000040000fa
:04010400dc02000019
:020000040000fa
:04010800dc02000015
:020000040000fa
:04010c00dc02000011
:020000040000fa
:04011000dc0200000d
:020000040000fa
:04011400dc02000009
:020000040000fa
:04011800dc02000005
:020000040000fa
:04011c00dc02000001
:020000040000fa
:04012000dc020000fd
:020000040000fa
:04012400dc020000f9
:020000040000fa
:04012800dc020000f5
:020000040000fa
:04012c00dc020000f1
:020000040000fa
:04013000dc020000ed
:020000040000fa
:04013400dc020000e9
:020000040000fa
:04013800dc020000e5
:020000040000fa
:04013c00dc020000e1
:020000040000fa
:04014000dc020000dd
:020000040000fa
:04014400dc020000d9
:020000040000fa
:04014800dc020000d5
:020000040000fa
:04014c00dc020000d1
:020000040000fa
:04015000dc020000cd
:020000040000fa
:04015400dc020000c9
:020000040000fa
:04015800dc020000c5
:020000040000fa
:04015c00dc020000c1
:020000040000fa
:04016000dc020000bd
:020000040000fa
:04016400dc020000b9
:020000040000fa
:04020800dc02000014
:020000040000fa
:04020c00dc02000010
:020000040000fa
:04021000dc0200000c
:020000040000fa
:04021400dc02000008
:020000040000fa
:04021800dc02000004
:020000040000fa
:04021c00dc02000000
:020000040000fa
:04022000dc020000fc
:020000040000fa
:04022400dc020000f8
:020000040000fa
:04022800dc020000f4
:020000040000fa
:04022c00dc020000f0
:020000040000fa
:04023000dc020000ec
:020000040000fa
:04023400dc020000e8
:020000040000fa
:04023800dc020000e4
:020000040000fa
:04023c00dc020000e0
:020000040000fa
:04024000dc020000dc
:020000040000fa
:04024400dc020000d8
:020000040000fa
:04024800dc020000d4
:020000040000fa
:04024c00dc020000d0
:020000040000fa
:04025000dc020000cc
:020000040000fa
:04025400dc020000c8
:020000040000fa
:04025800dc020000c4
:020000040000fa
:04025c00dc020000c0
:020000040000fa
:04026000dc020000bc
:020000040000fa
:04026400dc020000b8
:020000040000fa
:04026800dc020000b4
:020000040000fa
:04026c00dc020000b0
:020000040000fa
:04027000dc020000ac
:020000040000fa
:04027400dc020000a8
:020000040000fa
:04027800dc020000a4
:020000040000fa
:04027c00dc020000a0
:020000040000fa
:04028000dc0200009c
:020000040000fa
:04028400dc02000098
:020000040000fa
:04028800dc02000094
:020000040000fa
:04028c00dc02000090
:020000040000fa
:04029000dc0200008c
:020000040000fa
:04029400dc02000088
:020000040000fa
:04029800dc02000084
:020000040000fa
:04029c00dc02000080
:020000040000fa
:0402a000dc0200007c
:020000040000fa
:0402a400dc02000078
:020000040000fa
:0402a800dc02000074
:020000040000fa
:0402ac00dc02000070
:020000040000fa
:0402b000dc0200006c
:020000040000fa
:0402b400dc02000068
:020000040000fa
:0402b800dc02000064
:020000040000fa
:0402bc00dc02000060
:020000040000fa
:0402c000dc0200005c
:020000040000fa
:0402c400dc02000058
:020000040000fa
:0402c800dc02000054
:020000040000fa
:0402cc00dc02000050
:020000040000fa
:0402d000dc0200004c
:020000040000fa
:0402d400dc02000048
:020000040000fa
:0402d800dc02000044
:020000040000fa
:0402dc00dc02000040
:020000040000fa
:0402e000dc0200003c
:020000040000fa
:0402e400dc02000038
:020000040000fa
:0402e800dc02000034
:020000040000fa
:0402ec00dc02000030
:020000040000fa
:0402f000dc0200002c
:020000040000fa
:0402f400dc02000028
:020000040000fa
:0402f800dc02000024
:020000040000fa
:0402fc00dc02000020
:020000040000fa
:04030000dc0200001b
:020000040000fa
:04030400dc02000017
:020000040000fa
:04030800dc02000013
:020000040000fa
:04030c00dc0200000f
:020000040000fa
:04031000dc0200000b
:020000040000fa
:04031400dc02000007
:020000040000fa
:04031800dc02000003
:020000040000fa
:04031c00dc020000ff
:020000040000fa
:04032000dc020000fb
:020000040000fa
:04032400dc020000f7
:020000040000fa
:04032800dc020000f3
:020000040000fa
:04032c00dc020000ef
:020000040000fa
:04033000dc020000eb
:020000040000fa
:04033400dc020000e7
:020000040000fa
:04033800dc020000e3
:020000040000fa
:04033c00dc020000df
:020000040000fa
:04034000dc020000db
:020000040000fa
:04034400dc020000d7
:020000040000fa
:04034800dc020000d3
:020000040000fa
:04034c00dc020000cf
:020000040000fa
:04035000dc020000cb
:020000040000fa
:04035400dc020000c7
:020000040000fa
:04035800dc020000c3
:020000040000fa
:04035c00dc020000bf
:020000040000fa
:04036000dc020000bb
:020000040000fa
:04036400dc020000b7
:020000040000fa
:100400000f9620000e7f21000e01880000000000e2
:10041000000020000000e000020032000001200087
:100420002002880014000700da0007000000e00046
:1004300003003a006055220001002000020037004e
:100440000000200001002000810f70000100320038
:1004500014000700000020000000e000020032004d
:100460000000020000000000d6230200000000008f
:100470000040da000000fe004440a900a002200075
:100480000000e0000300320000002000a00188000e
:100490004440a800000006008a1f78008b1f7800e7
:1004a0000000060091018800800478000000eb0045
:1004b0001a003700e284440032a0b4009905ba0063
:1004c000e284440032a0b4009906ba00e2844400f9
:1004d00032a0b4000006eb00476fde00fd07b2005b
:1004e000636ce10003003a00ebff07000000eb0043
:1004f0000a003700606ce10004003a00005deb0088
:100500008b05e900fdff3e00040037006168e10053
:10051000010032000086eb000b00070019c7ba008b
:100520001905ba000e04e00003003a000a00e000da
:10053000e0ff3a0000000600fe07b2009e018800be
:100540008a047800f5ff3700395dba008b05e900b1
:100550000c003200295dba008b05e900080032006a
:100560000c00e00003003a00e284440032a0b40032
:10057000f5ff370019ddba008b05e900faff3a00f4
:100580008904e800e184440032a0b40000000600c1
:10059000000000000000000000000000000000005b
:1005a000000000000000000000000000000000004b
:1005b00000000000000000000040da000000fe0023
:1005c0000a00fa0011002000b1bf9f00c0bf9f00c9
:1005d0006a8057001a0a07004fb897000080fa0097
:1005e000000006000a00fa00e20f500034003e004e
:1005f000e04a8000e10f500003003200e20f50009b
:1006000011003a000c003700032220000300e00034
:1006100001003a000040da002002e200020035004a
:100620002822ef0021e2a8002342ab000d003a008f
:100630002342a8000b003700032320000300e00042
:1006400001003a000040da003002e200020035000a
:100650003822ef0031e2a8003342ab0001003a003b
:100660003342a800820178000b0037003102fb0002
:10067000e10f500004003a002322ab00feff3a00d5
:1006800024118800030037003322ab00feff3a003c
:10069000a41188008301e9000300e000f3ff3a00a1
:1006a000e10f500003003a002302ab00feff3200ce
:1006b0000b0037003302ab00feff320008003700aa
:1006c00033002000b3bf9f00c0bf9f00d1bf9f0079
:1006d000e2bf9f006a805700db0907006fb99700ef
:1006e000020078000080fa00000006000a00fa000c
:1006f00051002000b1bf9f00c0bf9f006a8057001b
:10070000d30907005fb897000080fa0000000600d8
:10071000889fbe0080047800f04a80000000e0005e
:1007200004003a000e0007000084eb000000e00027
:1007300008003500f84a80000900e000050032009a
:1007400009004400060007000000e00001003d0031
:100750000084eb00080078004f04be000000060093
:10076000800078000100e00003003a000000200053
:10077000f04a8800000005000080eb000200200025
:10078000828f500002003e00f14a88000000eb001a
:1007900000000600000005006011b8004d0237009f
:1007a000038368000700280007036300470ade0090
:1007b0000480a100c71ade000580a100f70f200009
:1007c0000720e100420032000728e100400032002b
:1007d000889fbe008a9fbe008c1f7800f107b20080
:1007e000f307b2000400e000640032000170a000d2
:1007f0000500e000680032000370a000850542009b
:10080000eb07b1000204b8000302b800848444007e
:1008100060854a00020ab800848444000a854a00c0
:10082000030ab80004054500040033000804d000a2
:100830008984d2000a85d2008b05e9006158e10065
:100840003d0035000210200009016100030820006e
:1008500089816100f70720008783640008867300a0
:10086000c84cde00c853dd00878474004855de00a4
:100870000300e0000600320082037600040032002c
:100880008904e80060054d000a88a3000c003a00c6
:10089000f70f20000758e10044003d000a70a10056
:1008a000c75ddd000a8575008a00730009007800c5
:1008b0004f0678004f05be004f04be000000060042
:1008c0000a05d1008984d3008b05e800f0ff3700ca
:1008d000881f78000604780053020700070278009a
:1008e0000001fd008101fd004f0207008702780032
:1008f000850372000778a300050032000001fd00a7
:100900008101fd003a0107004f0478000000060055
:10091000850372000748a30003003200f0ff2f0098
:10092000f1ff2700f8ff37000000200001f8270042
:1009300088807000f4ff3700880178004848dd00a7
:10094000808171004848de00c850dd000100700061
:10095000c850de00060478000b0178006001070033
:1009600088807000d2ff37000500e00005003200eb
:1009700017002000100007009dff37008103700062
:10098000f9ff3a00860078004f0678004f05be0058
:100990004f04be000000050083037100f9ff320020
:1009a000270020000400070094ff370001f827000b
:1009b00086807000f4ff3700889fbe000004eb00c3
:1009c0006138e10016003a000100e00008003a003a
:1009d000c800de004800dd00880020000100e000c3
:1009e00003003a00c800de004800dd00680444004f
:1009f0008184cf00e9845400060034008908dd00ba
:100a0000f08314008703de00878070000900dd009a
:100a100009044400610214004f04be0000000600f7
:100a20000300e00008003a00c811de004811dd00b4
:100a3000880020000300e00003003a00c811de0037
:100a40004811dd00680444008384cf00e984540029
:100a5000060034008919dd00f08314008713de00de
:100a6000878171000911dd0009044400e1021400ce
:100a7000e9ff3700889fbe008a9fbe008c9fbe00a2
:100a80001b0020000202be00058668000600280048
:100a9000060666004709de00f20fb200820032004f
:100aa0000243e80080003200c729de00f30fb200e5
:100ab0007d0032000343e8007b003200f107b20002
:100ac0000170a000f507b2000570a000c708dd00a6
:100ad0004903de00868070004700dd00c72add0084
:100ae0004923de00868272004722dd0003055100a3
:100af00004035000858358000300310000004000cb
:100b0000818048000a05e9008c1f78008a9fbe009a
:100b100004005000858058000402420085824a008b
:100b200000004000818048000005eb000004be008a
:100b30006033b8000406be000d48e10056003100e5
:100b4000110009004dccd8000c01b8000d02b8000e
:100b50008481410060824a008283530003045c0068
:100b600084845c0060055d000a00e00025003a0016
:100b7000800578000d40e1004900310088007800d0
:100b800007007800110009004d88d8000c01b8005a
:100b90000d02b8008481410060824a0060031100a8
:100ba00083835b0004045c00e0845c000900e000d7
:100bb00021003a004f01be000300e0002b0032008c
:100bc000e3016000070673008c81710001003200b0
:100bd000640070004200de004e5edd000c0070001c
:100be000c258de0001e0a000e7000700cf01780056
:100bf000818071004f06be004f05be004f04be004d
:100c0000000006008c8343000d044c00e0844c007f
:100c100060054d000000e9000a00e000d4ff32004a
:100c20008c8343000d044c00e0844c0060054d00b3
:100c30000000e900ceff37000c0343008d834b001a
:100c400060044c00e0844c000000e9000900e00072
:100c5000d8ff32000c0343008d834b0060044c002e
:100c6000e0844c000000e900d2ff37004200de00c3
:100c70004e5edd000c007000c258de0001e0a000f6
:100c8000cf0178000300e000daff320060001000be
:100c9000e0801800d7ff3700f0ff2f00aaff3700d1
:100ca000f0ff2f00b9ff37000404be005e0107000b
:100cb000870678000004fd008104fd005a0107004a
:100cc000078366000678a300030032000960a700ce
:100cd0000800be002c0037000d78a300020032008f
:100ce0000800be00280037000778a30026003a005d
:100cf00001f0a10009f0a1000668a3000300320082
:100d0000f1ff2700f0ff2f00baff37000d68a300a6
:100d1000030032000800be008c807000b5ff370071
:100d20000768a30007003a000648a300030032004a
:100d3000f1ff2700f0ff2f00aeff37000d48a300a2
:100d4000030032006000b8008c807000a9ff3700fb
:100d50000748a3000400320001f82700000020002b
:100d60008c807000a3ff37002a0007000004fd00fc
:100d70008104fd0002057800260007000802be007d
:100d80008a01780059ff37000160a000120220009c
:100d9000b242880097ff37000100e00012003200e5
:100da0000500e00010003200889fbe008a9fbe0050
:100db0008c9fbe000006eb0001f8a3000300320088
:100dc00060001000e08018000cf0a00005f8a300ff
:100dd0000300320060021200e0821a000cf0a20050
:100de0008005eb0041ff37006000b80002000500fd
:100df0000478a300040032000578a3000300320049
:100e00000168a30001003a000200be000160a000da
:100e1000000006004f0ade004709de00f107b200bd
:100e2000f20fb2000b003200f207b1000170a00017
:100e3000c708dd00c901de00838070004700dd00c7
:100e40000400a6000000060060001000e08018000a
:100e500000000600810f700001003a00000006004b
:100e60008182cf000500e00010003e008082cf00ac
:100e7000ee8242007028e1000400390007003e00c5
:100e8000800078000000eb000e0037007083120035
:100e90008600de000500dd000a0037007083520086
:100ea0008600dd000000eb0006003700e282520001
:100eb0008508dd00708312000603de008680700066
:100ec0000500dd007507b0000501ea000400a6007a
:100ed0000000060060001000e0801800000006001e
:100ee0000100e00026003200610111007810e100ed
:100ef00023003c006022b8007010e10004003500bf
:100f000080027800010078008000eb007001510041
:100f10000200e0000900340070031100062add0021
:100f2000822ade008603dd00878272000200de0076
:100f3000860bdd00070070008208de0084817100ee
:100f4000f4ff2700048262008481710004002800fd
:100f5000848262006102600005f0a60000000600c5
:100f600004827100070032000000e800e0804800c1
:100f7000000006000002be006000b800efff37006e
:100f80006000b800000006008101700027003200f8
:100f90008002eb0001f8a3000300320060001000a3
:100fa000e080180015002000f40720000202420033
:100fb00020003400f70320008703600006042000af
:100fc0000003630002082000000161004700de000a
:100fd000c909dd0000807100c708de000600e000de
:100fe0000800320087037100060032001000b000d4
:100ff0000180b0000188a30002003200c108de00b9
:101000000402e800f107b200f30f20000320e10022
:1010100003003d004722dd008100720029003700f7
:1010200001f827000000eb00260037006000b80040
:1010300000000600680212007f20e1000200340078
:101040006000b8001f0037006011b8007020e10098
:101050000400350080017800010078008000eb007a
:10106000700252000400e00009003400f003120096
:101070000719dd008419de000703dd008681710099
:101080000400de00070bdd00060070008408de00af
:10109000f7ff2700838363008703710006002800a1
:1010a00003036300070032000700e00003003a007a
:1010b0006101600002817300020032001000b00084
:1010c0000180b0000500a6000000060001f0a000ad
:1010d00000000600889fbe008a9fbe00008270004c
:1010e0000402710004827100260032000004be0078
:1010f0000200be006011b8006b09200095022000bc
:101100000182cf000a0039000541b1000082cf0002
:10111000070039000541b1000982cf000400390001
:101120000541b1000882cf00010039000541b1003e
:1011300005425200120032000a003b008281710019
:10114000610164008100d1000080d3008984d30054
:101150000884d3008b05e8000442e800f7ff3a005a
:10116000070037000804440089844c000000480050
:10117000818048008b05e9000442e900f9ff3a004c
:10118000030007004f05be004f04be00000006002c
:1011900081002000618055000b003d000b00200005
:1011a00061fe2f000100e1001d003400828171000a
:1011b000610164008904d1000884d3000000e800c4
:1011c000faff3a0071002000610064000300700023
:1011d000020060000900320061044400e0844c0019
:1011e0000988a500050032008b05e8006808e100c9
:1011f00002003a008904d1000884d300f20f2000d5
:101200000258e10005003d00c75ddd00f907b200ae
:101210008980750008007800000006000bf82700a0
:101220008b007800000005002700200001f0a700d7
:1012300017002000470bde00f60fb200040032005a
:101240000643e8000a0032004702b300000006002f
:1012500001037800f607b2000603700002003a00ae
:101260000703b300000006008702b3000000060079
:1012700001037800f607b200060370000200320096
:101280000770a000000006000760a0000000060034
:10129000889fbe00800478000203be00010478002d
:1012a0006149b800898fd2008381d200080278009a
:1012b0000600be00e8060700088044004f04be0098
:1012c00000000600881f78000204780008017800fa
:1012d000e2000700080040004f047800000006000c
:1012e0000000fa00881f7800000478006a82570026
:1012f000bfb9970008017800819420002096200053
:10130000160007000000e000020035008040eb00fe
:10131000017478004f0478000080fa000000060095
:10132000889fbe00000478000203be00810478009c
:101330000802780089017800120020000600be0033
:10134000b5010700890f5000010032000004eb00d6
:10135000080078004f04be00000006006800fa0094
:10136000889fbe008a9fbe00800478000104780038
:1013700082057800030578008400780000f92f00ca
:101380000f004000a2010700d98f9f00fb8f9f0034
:101390000000eb00a09f9f00e88f9f009a84fb0055
:1013a0000904fb008904ea00cf4cde005002200053
:1013b000800f54000d003200e18f54000b003a0002
:1013c000090178008a0078007f889700df899700fc
:1013d00003000100f08f9f000000e0009500320044
:1013e0002f9897000000e800a09f9f000905450086
:1013f00050022000800f5400040032000800e0007a
:10140000e6ff3a002f9897008b0037000000eb00b2
:10141000809f9f00f0979f00e0979f00d0979f00cc
:10142000c0979f00b0979f0007003700c19420002d
:10143000010050000000400001942000610078008d
:10144000cf98970001007000c09f9f000a047800a9
:1014500008057800ba4478008900fb00c094200099
:10146000850007000000e000f0ff3a00a1c2b300d1
:1014700081cf54000e003a008f8897000180e90068
:10148000808f9f0010007800b09f9f000000e00058
:1014900005003d000000ea00b09f9f004f989700b4
:1014a0000020a000c09f9f000804e8001000370043
:1014b000b09f9f00880078000000eb000500370017
:1014c000f3ff2700830f5000020032006a02b900c8
:1014d0000400410001047800880078003101fb001d
:1014e0000203b100e90f5100f5ff3600b09f9f00e5
:1014f000e0c2b300984f1000020032000080eb0001
:1015000019003700a0c2b300d84f100007003a00fe
:101510008f8897000180e900808f9f00100078007d
:10152000909f9f000804e800100037000000eb00c7
:10153000909f9f008800780005003700f3ff270088
:10154000830f5000020032006a02b900040041001b
:1015500001047800880078003101fb000203b1002b
:10156000e90f5100f5ff3600909f9f0098447800e6
:101570008900fb00809320003f0007000000e0008e
:10158000020032000804e800010037008044eb004c
:10159000a97f9f0080c6b30080cf540006003a00a8
:1015a00098cf140010003a0066405000a07f9f00c2
:1015b0000804e8000c003700c0c6b30080cf540018
:1015c00009003a0098cf140007003a006740400035
:1015d000d84f100002003a006e4050000100370062
:1015e00010c7b300a07f9f001801fb00c3fb2f00b2
:1015f0008f81410001f92f008f80400020f92f00da
:101600000f004000ab0107000000e00009003a00b5
:10161000c1fb2f008f80400020f92f000f004000f9
:10162000210007000000e000020035000805e80086
:101630005aff37000080eb004f05be004f04be008c
:101640000080fa00000006000302780082017800a2
:10165000010178000199200040ff370080017800e7
:1016600002003700b15978000201e9000200e000f1
:10167000fcff3a0000000600020037000304e0000f
:10168000060032000001780002007800b0417800c6
:1016900081cf5100f9ff3a00010037000001eb0053
:1016a00002007800000006000400fa00889fbe00d7
:1016b0008a9fbe008c1f7800000478000106780025
:1016c000a8149000280890008084540038089000e6
:1016d000808454004808900080845400580890008a
:1016e000808454006808900080845400780890003a
:1016f000808454000002220090bf9f00000323005a
:10170000a0bf9f00381090000028a30015003a00e9
:101710000900e00013003400090578008a0578000c
:10172000e20f5500010036002b002000c801900098
:101730000b017800ee805700680090000300010064
:10174000600498000000e000aa0032001810900029
:101750000b004000101498000b0555004240a900f2
:10176000eeff3c00280990000200e0000c0034006d
:10177000c80190008c007800680090000300010010
:10178000600498008080eb000000e0009a003200c6
:1017900098109000280890000080400010149800d5
:1017a000380d90000a00e000110034008a0578002e
:1017b000e20f5500010036002b002000c801900008
:1017c0000b017800ec8057006800900003000100d6
:1017d000600498000000e0008600320018109000bd
:1017e0000b004000101498000b055500edff37006a
:1017f00008699000c808900050c6b300804f51009f
:1018000008003a000100e000150034005802900082
:1018100008099000980990006800900004000100f9
:10182000070037000100e0000d003400c8019000ff
:1018300001017800f80090006800900003000100aa
:10184000600498008080eb000000e0006a00320035
:1018500098109000480890000080400010149800f4
:10186000580d90000a00e000110034008a0578004d
:10187000e20f5500010036002b002000c801900047
:101880000b017800ec805700680090000300010015
:10189000600498000000e00056003200181090002c
:1018a0000b004000101498000b055500edff3700a9
:1018b000086990006808900051c6b300814f51003c
:1018c0000d003a000000e0001c0034007801900098
:1018d000c8089000010141006111b800828fd20058
:1018e0008381d20058029000800078006800900048
:1018f00004000100090037000000e0000f00340080
:1019000078019000c808900081004100c801900053
:101910000001780068009000030001006004980056
:101920008080eb000000e00033003200981090004f
:10193000680890000080400010149800780d900016
:101940000a00e000110034008a057800e20f55001b
:10195000010036002b002000c80190000b01780028
:10196000ec805700680090000300010060049800bc
:101970000000e0001f003200181090000b00400033
:10198000101498000b055500edff3700381090003b
:101990008000eb000028a300170032000900e000df
:1019a0001500340009057800e28f5400010036006c
:1019b0002a002000c80190000a017800ee8057003c
:1019c0006800900003000100600498000000e0003f
:1019d00008003200181090000a004000101498000f
:1019e0008a8454004240a900eeff3c008000eb00d6
:1019f000010037008080eb00010078004f0678007e
:101a00004f05be004f04be000080fa000000060033
:101a10000108780000000600e6874700889fbe00a6
:101a20008a9fbe008c9fbe008e1f780082bf9f00e1
:101a300004047800029ab900f4b79f000400e000a3
:101a4000590032000fb997000200e0005700320041
:101a50000006be0004077800c800900068009000ef
:101a6000808f500004003900080078002f03070021
:101a70000000e0003b00350000402000180060003e
:101a80000a0032008e017800a20020000c00be0087
:101a90000e0507000005be0000807500070032003b
:101aa0008c0455008904e800050037008e04780096
:101ab0000a0020000b002000010037008e0478008f
:101ac000480190006800900002005000890f50000b
:101ad00003003100800478000a0020000b00200081
:101ae0006111b800828fd2008381d2000902780090
:101af0000c00be00d80407000907570048009000fa
:101b000009004000400498000a8575000400320076
:101b1000080078002c0007000000e00011003a00e7
:101b20000e00e0000f0032006148b800808fd20044
:101b30008180d2000000780000f0a1008c01d0006c
:101b40000001d000028641004220a80081864e009c
:101b50004200a9004220ae004200a8000c86d3003b
:101b6000bdff370000802000180060000200320036
:101b7000080078001400070000c020001800600072
:101b800002003200c8019000630498007fb0970003
:101b90000e0750000fb99700110009000287d80006
:101ba00080017800010037008001eb00030078001d
:101bb0004f0778004f06be004f05be004f04be0021
:101bc0006f00b10000000600889fbe00000478008e
:101bd0000800e0000f003a008004eb0009047800e0
:101be0008800d000008d2000610078000000e00037
:101bf00004003200f4ff07000000e00001003d0097
:101c00008084eb000804e800e80f5400f4ff3a0079
:101c10002500370000002200180060008004eb005f
:101c200021003200a80490000f0037000901510084
:101c3000384090000000fb008900780069fa070036
:101c40000000e00007003c002800900040049800dd
:101c500060049800500c98001890a0008084eb005d
:101c6000110037008084440048019000828f5400a6
:101c7000eeff39002800900040049800980078009a
:101c800002c020000281600001003a00380090008c
:101c900001e8a30002003200600498000100370050
:101ca000500c98008004eb00090078004f04be003f
:101cb00000000600889fbe008a1f7800000478009c
:101cc000824478000305780070c4b30080cf5400cc
:101cd0000a003c0000c0e90080cf54000f003d0026
:101ce00050c2b30080cf5400350032007c40400029
:101cf00080cf540035003a000800370010c6b3000a
:101d000080cf54000500320030003500b0c9b30068
:101d100000c04400e24f50002c003e0008699000d3
:101d2000c0c4b300804f510006003a001101780092
:101d300068005100800878005001be004000be00dd
:101d40000500370011017800640051008008780018
:101d50001000be0091040700009cbe000294be006b
:101d6000b8009000280890000100e00002003d004b
:101d7000d1c2b30008003700b81090000118a300ca
:101d800002003200b1c2b300030037000108a30013
:101d90000400320001c2b300017578000000e800c1
:101da000200c980028089000000545007a0498004f
:101db0008900fb0008007800100007000b003700c6
:101dc0002808900009757800060037002808900060
:101dd000000545000904e00001003a0059c2b300c3
:101de000094d78000000e800200c98000000eb008e
:101df0004f0578004f04be00000006002f04b0001d
:101e0000889fbe008a9fbe008c9fbe008e1f7800f8
:101e10000007780081f79f003e04be002e05be003b
:101e20000e1090000000e00002003d006000200065
:101e3000001798008e00780020fb2f000f00400054
:101e400081020700e20f50000a003a003000200033
:101e5000400f9800b1c9b3000ff0970081404000d7
:101e6000408e2000e1cf50000d003e00008e20008b
:101e70000b0037000000e0000f00340030002000ad
:101e8000400f9800b1c9b3000ff1970081404100a5
:101e9000c08e2000e1cf500001003e00808e200067
:101ea000fe009000b0487800b068780010407800dc
:101eb00090409800f30037000000e00005003a0071
:101ec00022fb2f000f014100001978008001eb0078
:101ed000e70037006022b8006033b8000800be0099
:101ee0000a01be00140407000000e00001003d00ec
:101ef0000bf0a200705927009f9897000088b90046
:101f0000026a280013002000150407006406500030
:101f10009c9f9f0013003b0063061600c0ff2f002c
:101f2000000666008c01ea00939f9f000d8f200041
:101f30000800be000a01be00070037000c08a3001d
:101f4000030032003d02be002d03be00e90507007c
:101f50000c86d100e88646000c00e000f7ff3c004c
:101f6000180037000c00e00018003200c0ff2f00fe
:101f7000000666009c9f9f000d8f20006000b80047
:101f80000200200003ff2300070037000c08a30015
:101f9000030032003d02be002d03be00d505070040
:101fa0000c86d100e88646000c00e000f7ff3c00fc
:101fb0000002be000203be000800be000a01be000f
:101fc0001d0507000004be000205be008e10900033
:101fd00060c6b3000ff29700804f52000400320039
:101fe0006000200062c4b300824f520002003a0039
:101ff0009f9a97006a80420081004000f1b79f00dd
:1020000001037800f30f5300020034003701200071
:10201000f7b79f0000c3b300c0779f0056fb2f00a7
:102020000f0343000e007800a0b79f00060778005a
:102030003d0037000800be000a01be00f60307009d
:102040000006be007fb1970068015100f2b79f0003
:102050004240a9000c0034001b0407000002be002f
:102060000203be000800be000a01be00a104070072
:102070006022b80046782d00771924009d050700de
:102080000004be000205be00e80047008e002000ec
:102090000802be000a03be00b4b79f00c5b79f0088
:1020a000d6b79f00e7b79f000c01be00010478007f
:1020b0000c003700a400200005002000c0fd2f0008
:1020c0000f004000840107006fa89700ffa8970049
:1020d0000fb197009fb1970005c3b300056441009d
:1020e0000001be00e00f5100e08f590003003400f2
:1020f0000e07e900e10f4700eeff3a008800780084
:102100003fb49700cfb497005fb59700efb5970045
:102110000200370000c3b300806078000e07e900ba
:10212000fcff3b00688740007fb397000600e0009b
:10213000070034006022b8006033b8000800be0019
:102140000a01be00810307000000e000b9ff3c0067
:102150000e0378002fb7970051fb2f008f804000af
:10216000010353009f9b970067804300909f9f004f
:10217000020037000603e9000000e90001017800d1
:102180008200780003c3b300b1cf1100f9ff320021
:10219000909f9f008e11900061c6b3000ff29700d0
:1021a000814f52000300320061c4b300814f5200de
:1021b00002003a000000e8000a003700100020008a
:1021c00051c6b3008ff2970081cf52000500320054
:1021d0000540780050c4b2000080fb000000e90018
:1021e0004f00de0083014000868f51000100340063
:1021f000860178000300e0001d00350000c3b30035
:10220000868f510006003d0062c27900694040009f
:1022100041c3b300814f520001003c0069405000af
:102220008300e9008100410001003700840178004b
:102230000302e90001037800a142780080cf520038
:10224000faff320091c3b300814f500001003a0001
:10225000054be8000400e00005003d000201e90034
:102260008301e8001f9b97000603e800969f9f00ec
:102270008ff397008700fb001f9a97000e007800ed
:10228000060007004f0778004f06be004f05be004e
:102290004f04be002f04b10000000600f087470085
:1022a000889fbe008a9fbe008c9fbe008e1f780054
:1022b00000047800814478000205be00040678001e
:1022c0000b00e00002003c001b0020006a9520008b
:1022d00060c6b30080cf54000e00320060c4b3006b
:1022e00080cf54000b00320070c6b30080cf540082
:1022f0000300320070c4b30080cf540081003a0064
:10230000e40f46007f00350008109000800f560053
:102310007c003d000c06e80060c6b30080cf54008e
:102320001000320060c4b30080cf54000d003200b2
:10233000381090000038a30004003a000810900004
:10234000808f550001003d000b149800081090008c
:102350000c0050000014980002003b000000eb004d
:102360000014980048089000f80090000c00e0006d
:1023700026003c0002c3b300827078000000e80031
:10238000400c9800881090000100e00003003c0021
:10239000b81090000138a30005003200f80090004a
:1023a000e2c2b300827078000000e800400c9800a0
:1023b000081090008c00ea00810f500001003d00e1
:1023c0000006ea008c00ea00510c98000006460066
:1023d0000c1498008b0f5600010034000b06780097
:1023e0006c0c9800f80090004808900000804000b5
:1023f0000c0178008a00780098fc07000810900013
:102400000c0650007c0c9800900037008c8f550013
:1024100018003d00008040000b0178008a00780021
:102420008efc07004808900000804500400c980092
:102430008b0556005b0c9800881090000100e000ae
:1024400003003c00b81090000138a30006003200e1
:10245000f8009000e2c2b300827078006808900033
:102460000000e800600c980008109000700c9800c4
:1024700076003700008040000c0178008a00780068
:1024800076fc07004808900000004600400c9800c9
:102490008c855500881090000100e00003003c008e
:1024a000b81090000138a30005003200f800900039
:1024b000e2c2b300827078000000e800400c98008f
:1024c00008109000808f55000100340080057800ce
:1024d000f800900048089000008040008c00450003
:1024e0000b0178005dfc0700480890000b004000dd
:1024f000400c9800081090008b0550005b0c980071
:102500005200370048089000f80090009a70780058
:102510000000e800400c9800881090000100e000e6
:1025200003003c00b81090000138a3000500320001
:10253000f8009000e2c2b300827078000000e8006a
:10254000400c9800081090000000e00010003400db
:102550008b05e900808f550001003400800578006c
:10256000f800900048089000008040008a00e800d1
:102570000b01780039fc0700480890000b00400070
:10258000400c9800081090008b0550005b0c9800e0
:10259000f80090004808900000804000095878003a
:1025a0000007e8000c00e00004003500b1c2b300f1
:1025b000014878008e04780004003700d1c2b300cf
:1025c000014878008e0478000c06ea007d855700eb
:1025d0008006eb0009003700a20020008c00780084
:1025e00072805700310007007fb097008fb89700c6
:1025f000016d7800000678008d06e8000c00e00010
:10260000f5ff3c000d00e00009003a008e04780060
:1026100000c3b300805c7800050037008d06e90038
:10262000fc80570061c07e0002c3b300825c4000a2
:102630000d00e000f9ff3c00f80090004808900011
:102640000080400080845400690c9800381090008d
:1026500074006000f00f50000e003a00c8089000af
:102660002808900000804000d80890000100400039
:10267000e808900001004000f808900001004000c8
:10268000a8109000810f500002003d000080500013
:10269000300c98004f0778004f06be004f05be0073
:1026a0004f04be000f01b100000006008002780058
:1026b00001037800110009000203d80080017800ae
:1026c000830a78000299b90002015300920298002f
:1026d0000500780000000600881f78008a9fbe0071
:1026e0008c9fbe00000478000205be000406be00f8
:1026f0000401be000a00be0019020700008cbe00e3
:102700000c01be00880207000005550081855d00b0
:102710002a0498003b049800080078004f06be0089
:102720004f05be004f04780000000600889fbe00e1
:102730008a1f780000047800c800900068019000ab
:102740000000eb00828f50003c0039001800780038
:102750002200290002016000e20f51000700320050
:10276000012020000000e0000100350001202400cd
:10277000008c70000080eb00300037000200260063
:1027800002006000820f500009003a0038009000fb
:10279000808f500006003900080078000afd07000d
:1027a000800078000080eb000100e00023003a0088
:1027b0001805780000c020000000650018003a00ed
:1027c000a80490006002200008004000808f5400a0
:1027d00013003a0000202000650107002004980043
:1027e0000000e00005003a00290498004904980020
:1027f0008904e80039049800080037000a60a00046
:102800000a0c7800400498000120200080804000dd
:1028100031049800400c9800500c980036000700d6
:102820002800900050049800380090006004980040
:1028300000002600180c70000000eb004f05780027
:102840004f04be0000000600889fbe000004780010
:10285000e68440001900d0004500de00f27f200031
:10286000820f500010003a00000ceb009904780031
:102870006f816400200020001b003a0021019000bd
:102880000200e00018003a00110190000200e00090
:1028900015003a00100020001100e0001200320084
:1028a00020002000100037000000e00004003a0083
:1028b000010078007d0007000000e00008003c00f7
:1028c000f20028001901610001fe2300810c710053
:1028d00021c02f00010c40000080eb0002003700f7
:1028e000000ceb000000eb004f04be0000000600ef
:1028f000e051210061003700881f78008895200092
:102900001804e00003003a00f9ff070020c0b300fc
:10291000004c78004f04780000000600889fbe003d
:102920000004780008007800a7fc07008004780005
:10293000000420001800600002003200280090000f
:10294000a60007000000eb0020049800384090002b
:102950000004e000050035000000fb0018f7070048
:102960000000e000010032008084eb0018109000ad
:102970000000e000080032005cf707000000e00003
:10298000010032008084eb001810900093000700d3
:102990000000eb00101498000008200018006000f0
:1029a000150032000001eb006000b800038d20002c
:1029b0000202d00063027a00880f520005003a003c
:1029c0000000400081804800008041000008eb00ca
:1029d0000600370061004000e08048000201e80086
:1029e000e80f5000e08f5800f0ff3a000800780030
:1029f0007a0007000e003700000c780000c0eb00e2
:102a00003044980060022000080040002004980034
:102a10004004980050049800400c9800600498000e
:102a2000500c98007004980076004400000c980048
:102a3000090078004f04be0000000600881f7800df
:102a40000004eb006140b800e2ff2f00f3ff2f000d
:102a5000b5010700e28d2000620078000000e00070
:102a600001003200adff07000804e800e80f540041
:102a7000f4ff3a004f047800000006000100200037
:102a80000100e00008003200010080000100e000c9
:102a9000050032008100e900010088008100d000bb
:102aa0000200800000b1780000000600e60040004f
:102ab0001101780005002800850261006f016100a6
:102ac0008208780002003200120020001100370056
:102ad000a0019000120020000300e0000d003a0069
:102ae000900190000300e0000a003a001000e000ae
:102af00008003a003600370064034000960878006a
:102b000080017800530b7800900978000408780061
:102b100070015100110278000400e000f6ff32005d
:102b20001300370064024000140378004f33de00c6
:102b3000838141008308730080017800d30378000b
:102b4000cf3bde001403780006034300068a7300bf
:102b50001302780004024200100378004f33de00b5
:102b60008609720090017800038841000201e900a3
:102b700091017800ef8f5100eaff36001000370016
:102b800080017800530378004f33dd001002d1003c
:102b9000040873006402400094037800cf3bdd001a
:102ba0001303d10086897300110378004f33dd00d1
:102bb0009401d100030a73009108d1000201e800da
:102bc00091017800ff8f5100edff3e00ef8861001a
:102bd0009188720002007800000006000000e0000a
:102be0002f003200c0017800e38f51002c00360026
:102bf0000308a3002a003a00a14a80000100e00077
:102c000002003200810f50000400310011009800d2
:102c1000a04a880016003700820078001101900059
:102c20000200e00002003200800f5100faff39007c
:102c30001102780084824000850f5000180039008e
:102c4000808f520003003a008308420001007800a0
:102c5000070037000200e00003003200830140005b
:102c6000830f51000e003900120098009000980068
:102c7000900090000100e0000900320010014000c7
:102c8000828f500006003a00229520000009eb00d8
:102c90001001780011084100910090001100980087
:102ca00000000600889fbe0000047800914a800062
:102cb0000100e00002003200010078000d00370042
:102cc000a14a80004095200004003700910f540075
:102cd000250036000180e800910090000100e0002e
:102ce000faff3a0010003700920f54001e00360021
:102cf0000280e800100178000200e000faff3a00cc
:102d000011017800a14a800040952000040037009e
:102d1000910f5400140036000180e80091009000eb
:102d2000828f5000faff3a00d94a8000888f540001
:102d3000010031008804780009007800360007009f
:102d40000000e00004003a00888f540005003200c3
:102d50008904d100f5ff3700091878009fff0700ac
:102d6000d2ff37000000eb004f04be000000060059
:102d7000881f7800630440000800a1008000eb0079
:102d8000800f540021003600e30f540001003e0084
:102d90004800200008007800c2ff07008000eb0018
:102da0000000e000190032009000780091017800e6
:102db00064815100880f510003003100110190001f
:102dc00002087800070037000881400002087800f8
:102dd000910190001301980010017800110914006e
:102de00088087800100178000000eb000200e00085
:102df00004003200920190000300e0000100320064
:102e00000280e800904a88008180e8000100780094
:102e10004f04780000000600800078000000eb00fe
:102e20000100e000050034000100780038f60700da
:102e3000e10f400001003a000000eb000000060036
:102e400000c0da000000060000c0da000000060042
:102e500000c0da00000006003400f8000203be00e3
:102e6000820270008502720002f0a60000f0a60047
:102e70008100e800a10188001500b20008003200be
:102e8000105978000402e9000d0032006100400092
:102e9000fbff39003420ec0000002800f8ff370069
:102ea000101978000482e900050032006200400039
:102eb000fbff39003420ec0000002800f8ff370049
:102ec0003400f9000601be00000006000300e00027
:102ed00007003200a5018000a1018800104278009f
:102ee000a50188000402fb00820f5200110032008d
:102ef0008301e900a5018000a1018800104278004b
:102f0000a50188000404e0000800320000027800f7
:102f10001000b00000026a004260af0000f0a000a4
:102f20000482d2000180b000e8ff370000002000da
:102f300001002000000006008f1fd1000e030700d3
:102f40008f87e9000000e00000000600809feb0092
:102f5000090307008f87e9000000e0000000060079
:102f6000839f68000100e00002003d006000100047
:102f7000e08018000300e00002003d006001110045
:102f8000e08119006e0007004f00e00002003b00e6
:102f900060001000e0801800000006008103780047
:102fa0004c0007000001be006000b8000478a300d8
:102fb00013003a006220e10015003e000d003900c8
:102fc0008301d1000281d3008180d3008301d1002d
:102fd0000281d3008180d3008301d1000281d3001c
:102fe0008180d3000538b000c42add00f300b200b0
:102ff0008381720007f0a70003f0a0000000060024
:10300000f3ff2700f2ff2f006110b900fbff37002c
:1030100003ff2700f7ff37001400fa00889fbe0067
:103020008a9fbe008c9fbe000004be000205be0049
:10303000680047000a90be000890be000903070020
:103040000070a7000bf0a100304320009e0290000a
:1030500080825200b0fe2f000028e10011003d00e8
:10306000b0fc2f000028e100150034001e0990007c
:103070008e0890007e0090000501b0000201d10092
:103080008180d3000080d3008502e800fbff3a0076
:103090000b00e0002e033b0060001000e0801800f1
:1030a0002b033700f0ff2f00f1ff27000b00e0009b
:1030b00027033b0001002800000020002403370004
:1030c0006000b800220337004f89de0082017800db
:1030d00024033700c70ade00f107b200f50fb20083
:1030e00008003200e1cf4200020032000170a0006f
:1030f00024000500810f7000010032000408050063
:1031000044000500810f700002003a001400050021
:103110008502e9000000400081c04800fcff3b0040
:103120000170a00024000500020ab900001bb900cc
:103130000200b80081004200810043000000060048
:1031400002025000838258006100390003037100bd
:103150006200320005037200590032000300e000f3
:103160005500330017003a000100e0004b00320028
:103170000208e10006003100110009004288d80071
:10318000010178008001eb008000eb0000000600e8
:103190006110e100550032000002be00110009007c
:1031a0008280d800800278000400780011000900b5
:1031b0004288d800010178008001eb00850078008a
:1031c00000000600889fbe008a9fbe008c9fbe0044
:1031d0000386cf000c06e9008c1f78008c19dd00f7
:1031e000f00216000512de00848171000c11dd0072
:1031f0000003be008004eb00053cde008c3bdd00dc
:103200000532de00848373000c33dd000700780094
:1032100088007800110009004388d8000202b80035
:103220000306b8008c82420060854e008005eb00ea
:103230000402530085825b000a055c008b855c00fc
:103240000b0033008000eb004f0678000c21de00fd
:10325000700516000a2ddd000a0171008c29de00c0
:103260004f06be004f05be004f04be000000060022
:103270000202420083824a0060054d00e0854d0055
:103280000000e9000b00e000eeff3d0002024200fa
:1032900083824a000000e900eaff37000000e000f6
:1032a00012003200110009000280d80001017800ec
:1032b0008000eb00000006000401be0001003700a2
:1032c0006011b800100020008000eb000000060034
:1032d0000001be006000b800000006000001be0052
:1032e000f0ff2f00f1ff2f00000006006011b80072
:1032f000000006008c9fbe008a9fbe00889fbe0013
:10330000ca0107000bf0a200040037008c9fbe002a
:103310008a9fbe00889fbe00c40107000c48e100e0
:103320000b003a000c40e100020032008b01070064
:10333000400037008b066d003e0032000af0a1000d
:10334000f3012000f2ff2f006110b90039003700af
:103350000c40e100370032000940e1000100360076
:103360007e0107008a856d00cf5dde000b057500cc
:103370000006eb008804fd008904540001003200bf
:103380007d0107000a04e00011003a000800e00097
:1033900028003200040040008580480006014900f2
:1033a000878149000358a300180032008301d1002f
:1033b0000281d3008180d3000080d3000c86d3002b
:1033c00001003900610676000804e80018003700a3
:1033d000040050008580580006015900878159007b
:1033e000060031000af0a2000c06ea006000180096
:1033f000e080180060011900e081190003003a0024
:103400000004eb000005eb000a0037000348a300ae
:1034100007003a000c064600000048008180480082
:1034200002014900838149000804e900f7ff3700e1
:10343000af013700c90137008c9fbe008a9fbe00d4
:10344000889fbe00790107000b056d000940e1006f
:103450000a003a000800e000020032000c40e100df
:1034600006003a000af0a1000c047800f3012000e5
:10347000f2ff2f006110b9009d0037000c40e10001
:103480009b0032000800e000990032000c48e10087
:1034900002003a000004eb00030037000900e000de
:1034a00004003a000c0478006000b8006011b80015
:1034b0008f0037000348a30006003a0000004000d8
:1034c0008180480002014900838149000804e90025
:1034d000f8ff37000748a30006003a000402420044
:1034e00085824a0006034b0087834b008904e9006c
:1034f000f8ff3700fd3f20008d845400090454007c
:103500008a1f7800881f7800000478008104780002
:1035100002057800830578006000b8006011b800eb
:103520000d042000050037000804440089844c0085
:103530000a054d008b854d0008003100040454003d
:1035400085845c0006055d0087855d008381d2006f
:103550008d06d300f4ff3b0007003700040444004d
:1035600085844c0006054d0087854d008381d2007f
:103570008d06d300ecff3b000804440089844c0016
:103580000a054d008b854d000800310004045400ed
:1035900085845c0006055d0087855d000281d200a0
:1035a0008d06d300f4ff3b000700370004044400fd
:1035b00085844c0006054d0087854d000281d200b0
:1035c0008d06d300ecff3b000804440089844c00c6
:1035d0000a054d008b854d0008003100040454009d
:1035e00085845c0006055d0087855d008180d200d2
:1035f0008d06d300f4ff3b000700370004044400ad
:1036000085844c0006054d0087854d008180d200e1
:103610008d06d300ecff3b000804440089844c0075
:103620000a054d008b854d0008003100040454004c
:1036300085845c0006055d0087855d000080d20002
:103640008d06d300f4ff3b0007003700040444005c
:1036500085844c0006054d0087854d000080d20012
:103660008d06d300ecff3b000b00e00004003d00a2
:103670000404440085844c0006054d0087854d00f8
:103680000006eb008301d1000281d3008180d300ca
:103690000080d3000c86d3008301d1000281d300c7
:1036a0008180d3000080d3000c86d300890474008d
:1036b0008b0575008b847400010032006106760072
:1036c0004f0478004f0578000348a30007003a0034
:1036d0000c064600000048008180480002014900b5
:1036e000838149000804e900f7ff37000001370033
:1036f0001a0137008c9fbe008a9fbe00889fbe00c3
:10370000ca0007000b056d008a0578000c40e10037
:1037100008003a000900e00082003a000af0a10027
:103720000c047800f3012000f2ff2f006110b900b3
:103730007c0037000c48e10004003a0087000700d5
:103740000900e00077003a00f4ff37000800e000cd
:10375000740032000900e00002003a007f00070018
:1037600070003700ed3f20008d84540009044400b0
:103770008a1f7800881f7800871f7800861f7800ce
:10378000851f7800841f7800cb19dd00c515de0089
:103790008b8571004b11dd00450dde000a057100bf
:1037a000cb08dd00c504de00898470004b04dd0019
:1037b0000440b8000546b8008c80400060814e008f
:1037c000044eb8008c8040000d0149008001eb00e0
:1037d0000318ad000456b8000c0141008d8149006a
:1037e0000002eb000420ad000646b8000c014100c9
:1037f0008d81490060024a00054eb8000c0141006d
:103800008d81490060024a000556b8008c81410054
:103810000d024a008002eb000528ad000746b80003
:103820008c8141000d024a00e0824a00064eb80039
:103830008c8141000d024a00e0824a004f06780068
:103840000c5eb8008c8141000d024a00e0824a0003
:103850000656b8000c0242008d824a000003eb00bd
:103860000630ad00074eb8000c0242008d824a00bf
:1038700060034b004f0678000c5eb8000c0242005b
:103880008d824a0060034b000756b8008c824200cc
:103890000d034b008003eb000738ad004f067800a6
:1038a0000c5eb8008c8242000d034b00e0834b009d
:1038b0004f0678000c5eb8000c0343008d834b006c
:1038c0004f0478004f0578000748a3000a003a002b
:1038d00000004000818048000201490083814900c6
:1038e00004024a0085824a0006034b0087834b008e
:1038f0000804e900f4ff37000306780080807000b8
:103900008280700001003200610676008701780035
:1039100006017800850078000400780088047800ab
:10392000780037008d0037008c06460002003a0010
:103930000000a6000000060060004800e08048008b
:1039400060014900e08149000350a6000000060024
:103950008301d1000804e800000006000002fd0019
:103960008102fd000203fd008303fd008804fd00c9
:103970008a05fd00000006007048e1001a003900c9
:103980007d0320000d48e1000a0039008105700028
:10399000830671008c8575008d8575000006eb002f
:1039a0000cd8e700610676006000b8006011b8002e
:1039b000000006007048e1000b0039008c0578001b
:1039c000000678000100780082007800030178008a
:1039d0008001eb0003d8e70061067600f084540014
:1039e000f4ff3a00000006006160e1000c48ad0001
:1039f000f08514008b06dd000966de000d067600fa
:103a00008b0edd000900de000d0070008b16dd005e
:103a10008908de008d8070008b1edd000911de003c
:103a20000d0171008919de00000006000d0028005c
:103a3000fc7f20000d856100441cde00ef816100e9
:103a40000c046400010032000340a0008d85630077
:103a5000c43cde00ef8363008c846400010032000c
:103a60000740a0000c40e10006003a00ef8661002c
:103a7000828676008186760080867600010032009c
:103a8000180037000c48e10007003a00ef86630099
:103a9000868676008586760084867600020032006f
:103aa000aeff07000f0037000348a30005003a00ef
:103ab00081067000828676008386760001003200df
:103ac0000804e8000748a30005003a0085067200d4
:103ad0008686760087867600010032008904e80039
:103ae00000000600cf047800cf0578001b003700e7
:103af00000027800810278000203780083037800d6
:103b0000880478000cf0a70087ff0700fd7f2000e5
:103b10000d40e100040035000d0478006000b8009d
:103b20006011b8000d0037000800e0000b003c00f9
:103b3000040078008500780006017800870178008d
:103b4000e18414008cff07000cf0a70076ff07004b
:103b50000004eb000340a7000804e8004444dd0033
:103b60006fc56100880175004f04be004f05be009f
:103b70004f06be0000000600889fbe008a9fbe0060
:103b80008c9fbe000404be000605be00809fbe00e0
:103b9000829fbe0021000700040678000800be00d6
:103ba0000a01be001d000700840678004f03be0016
:103bb0004f02be008d4f76007fb097001300330098
:103bc000f0ff2f008b8f6b0006003b000d06660098
:103bd0000c00a7000a00370007f0a6001000200024
:103be0000a003700880f5200898f5a008a0f5b0045
:103bf0008b8f5b00030039001000200001003e00a5
:103c00000000200007f0a7000000ea004f06be00f9
:103c10004f05be004f04be000000060005ff270050
:103c200005826100070032000428e1000100320033
:103c3000240005000600070001003a0044000500ca
:103c40000408050002000700f9ff3a00140005000f
:103c50006f8261008102700085027100850272002e
:103c600000000600800078005002be005003be0035
:103c70004439de00f700b200f37f20000301610049
:103c8000090032000218e10016003a0085017200b6
:103c900083017300838173000008200015003a003f
:103ca000400020001300370085017200830173007b
:103cb0008381730005003a0004a8be0006a8be0078
:103cc000100020000b0037000201e900040242004e
:103cd00085824a0006034b0087834b000748a300f8
:103ce000f9ff32000740a00004a8be0006a8be00ed
:103cf000200020008000980092009800000006003c
:103d0000680447000294be000094be00fc04470013
:103d10008694be008494be0009007800d1ff07009d
:103d200008007800cfff070099007800814f7000ed
:103d30000b003b000800be00710007004f00b100ff
:103d400003003700f3ff2700f2ff2f006110b900d6
:103d50004f06be004f05be004f04be000080fa00b3
:103d600000000600881f7800030478000300e000cc
:103d700007003d0060001000e0801800600119009d
:103d8000e081190002003b0001f02d000300370024
:103d90000400070008f0a70003f0a0004f0478001b
:103da00000000600889fbe000082700004027100bf
:103db000048271002400320036432000c500200038
:103dc0008383cf000a0039000541b1008283cf0010
:103dd000070039000541b1008183cf00040039009c
:103de0000541b1008083cf00010039000541b100d9
:103df00085c353006022b800120032000a003b0065
:103e000084827200610260008301d1000281d300cc
:103e10008180d3000080d3000603e8008743e800d8
:103e2000f7ff3a000700370000004000818048009b
:103e300002014900838149000603e9008743e90044
:103e4000f9ff3a00020007004f04be000000060020
:103e50001800200057002000080453000d003d000a
:103e60000600200097fc2f000740e1001e003400f0
:103e700084827200610260008301d1000281d3005c
:103e80008180d3000080d3000804e800f8ff3a00e6
:103e9000470020006104600005047400040464000d
:103ea0000d00320061004000e080480060014900e0
:103eb000e081490003b8a500070032000603e800ce
:103ec0006538e10004003a008301d1000281d3008b
:103ed0008180d3000080d300f87f20000830e1000b
:103ee00003003500080378006000b8006011b800d6
:103ef0004433dd00f300b2008301730000000600cc
:103f0000e48240001078a300070032006402400001
:103f10001178a3003400be001401be00040032007a
:103f20000330a700000006003500be001501be00ea
:083f30000330a00000000600b0
:020000040000fa
:103f380041440000433000003a00000041440000c2
:103f4800433100003a0000004144000043320000c1
:103f58003a00000041440000433300003a000000ea
:103f680041440000433400003a000000414400008e
:103f7800433500003a000000253000002e320000d2
:043f880066000000cf
:020000040000fa
:103f8c000200fa00004f78001e80fb006100600008
:103f9c00004078000004e00002003200cd02a800ce
:103fac0001003700cd02a9001e80fb0062006000fa
:103fbc000000e00002003200cd22a8000100370012
:103fcc00cd22a9001e80fb00640060000000e00010
:103fdc0002003200cd42a80001003700cd42a900fa
:103fec001e80fb00680060000000e0000200320050
:103ffc00cd62a80001003700cd62a9000080fa0054
:10400c00000006000200fa00004f7800cce2a90084
:10401c00cce2a8001e407800d9ff070080382100b0
:10402c00010020005a030700cce2a9000080fa002e
:10403c00000006000000fa0041168000f0032f007b
:10404c00008060004016880061168000f0032f008d
:10405c00008060006016880030c0b300e9ff0700e4
:10406c0030c0b300e7ff070030c0b300e5ff070026
:10407c0020c0b300e3ff070020c0b300e1ff07003e
:10408c0080c0b300dfff07000040eb00ddff07003e
:10409c0080c0b300dbff07000040eb00d9ff070036
:1040ac0010c0b300d7ff07000040eb00d5ff07009e
:1040bc00c0c0b300d3ff07000080fa000000060068
:1040cc000400fa002047980031479800ccc2a900a0
:1040dc003e4090000080fb00e10f500017003200c2
:1040ec00e10f500003003c000000e000060032002d
:1040fc0039003700e20f50001d003200e30f500072
:10410c002800320034003700ae40900000c8b300e5
:10411c0000cf40002e4090000080fb000008b00053
:10412c004480de00104798001e409000b5ff070049
:10413c001e407800b3ff070027003700ae40900008
:10414c0000ccb30000cf40002e4090000080fb005c
:10415c00000cb0004480de00104798001e40900018
:10416c00a8ff07001e407800a6ff07001a003700c2
:10417c00ae40900040c9b30000cf40002e409000ec
:10418c000080fb004009b0004480de00104798001e
:10419c001e4090009bff07001e40780099ff07000f
:1041ac000d003700ae40900040cdb30000cf400072
:1041bc002e4090000080fb00400db0004480de00db
:1041cc00104798001e4090008eff07001e4078009c
:1041dc008cff0700000000000080fa0000000600c1
:1041ec000400fa0020479800ae409000014f780080
:1041fc002e4090000000fb004480de000040780060
:10420c0010479800ccc2a8001e4090007dff07000c
:10421c001e4078007bff07000080fa0000000600bb
:10422c000400fa00100798009e009000010f78001f
:10423c00040037001e007800104078001e0fe800c4
:10424c00e7ff07001e007800104078000004e00033
:10425c00f8ff3a000080fa00000006000a00fa009d
:10426c0020479800314798004247980053479800e0
:10427c006447980075479800064f9800174f9800b0
:10428c002e4090000080fb00e20f500062003200d4
:10429c00e30f5000c8003200e10f500024013a0037
:1042ac0040c0b30057ff07000040eb0055ff07006c
:1042bc00ccc2a8003e4090000080fb004400de0011
:1042cc00004f7800be409000114798001e407800c7
:1042dc004cff07001e4090004aff07004e40900024
:1042ec000080fb004400de00004f7800ce409000c0
:1042fc00114798001e40780042ff07001e409000b6
:10430c0040ff07005e4090000080fb004400de0090
:10431c00004f7800de409000114798001e40780056
:10432c0038ff07001e40900036ff07006e409000db
:10433c000080fb004400de00004f7800ee4090004f
:10434c00114798001e4078002eff07001e40900079
:10435c002cff07007e4090000080fb004400de0034
:10436c00004f7800fe409000114798001e407800e6
:10437c0024ff07001e40900022ff07000e4890000b
:10438c000080fb004400de00004f78008e48900057
:10439c00114798001e4078001aff07001e4090003d
:1043ac0018ff07001e4890000080fb004400de0050
:1043bc00004f78009e489000114798001e407800ee
:1043cc0010ff07001e4090000eff07000ef897002c
:1043dc000080fb004400de00004f78008ef8970050
:1043ec00114798001e40780006ff07001e40900001
:1043fc0004ff0700ccc2a9000040eb0001ff07003e
:10440c0010c0b300fffe070000122a00710020004c
:10441c005f020700c600370040c0b300f9fe07007a
:10442c0080c0b300f7fe0700ccc2a8003e4090004d
:10443c000080fb004400de00004f7800be4090007e
:10444c00114798001e407800eefe07001e409000b9
:10445c00ecfe07004e4090000080fb004400de00a4
:10446c00004f7800ce409000114798001e40780015
:10447c00e4fe07001e409000e2fe07004e40900054
:10448c000080fb004400de00004f7800ce4090001e
:10449c00114798001e407800dafe07001e4090007d
:1044ac00d8fe07005e4090000080fb004400de0058
:1044bc00004f7800de409000114798001e407800b5
:1044cc00d0fe07001e409000cefe07006e4090000c
:1044dc000080fb004400de00004f7800ee409000ae
:1044ec00114798001e407800c6fe07001e40900041
:1044fc00c4fe07007e4090000080fb004400de00fc
:10450c00004f7800fe409000114798001e40780044
:10451c00bcfe07001e409000bafe07000e4890003b
:10452c000080fb004400de00004f78008e489000b5
:10453c00114798001e407800b2fe07001e40900004
:10454c00b0fe07001e4890000080fb004400de0017
:10455c00004f78009e489000114798001e4078004c
:10456c00a8fe07001e409000a6fe07000ef897005c
:10457c000080fb004400de00004f78008ef89700ae
:10458c00114798001e4078009efe07001e409000c8
:10459c009cfe0700ccc2a9000040eb0099fe07006e
:1045ac0010c0b30097fe070000122a007100200013
:1045bc00f70107005e00370040c0b30091fe070012
:1045cc0000c0eb008ffe0700ccc2a8003e4090005c
:1045dc000080fb004400de00004f7800be409000dd
:1045ec00114798001e40780086fe07001e40900080
:1045fc0084fe07004e4090000080fb004400de006b
:10460c00004f7800ce409000114798001e40780073
:10461c007cfe07001e4090007afe07005e40900072
:10462c000080fb004400de00004f7800de4090006c
:10463c00114798001e40780072fe07001e40900043
:10464c0070fe07006e4090000080fb004400de000e
:10465c00004f7800ee409000114798001e40780003
:10466c0068fe07001e40900066fe07007e4090002a
:10467c000080fb004400de00004f7800fe409000fc
:10468c00114798001e4078005efe07001e40900007
:10469c005cfe07000e4890000080fb004400de002a
:1046ac00004f78008e489000114798001e4078000b
:1046bc0054fe07001e40900052fe07001e4890005a
:1046cc000080fb004400de00004f78009e48900004
:1046dc00114798001e4078004afe07001e409000cb
:1046ec0048fe07000ef897000080fb004400de0037
:1046fc00004f78008ef89700114798001e40780004
:10470c0040fe07001e4090003efe0700ccc2a900f0
:10471c000040eb003bfe070010c0b30039fe070061
:10472c0000122a007100200099010700000000000f
:10473c000080fa00000006000200fa00004f78002a
:10474c00ccc2a8000040eb002efe07001e40e90082
:10475c002cfe0700ccc2a9000080fa000000060065
:10476c000000fa00ccc2a9000040eb0025fe0700b7
:10477c0010c0b30023fe07000080fa000000060002
:10478c000000fa00ccc2a9000040eb001dfe07009f
:10479c0020c0b3001bfe07000080fa0000000600da
:1047ac000400fa00000f78001107980021fe0700a2
:1047bc00380107008040eb000040eb0040fe070092
:1047cc00c0f9290096fe070011c0b3000040eb00b1
:1047dc003bfe070020fa290091fe070021c0b30020
:1047ec000040eb0036fe070080fa29008cfe070023
:1047fc0031c0b3000040eb0031fe0700e0fa2900a5
:10480c0087fe07008040eb00b0c0b3002cfe070011
:10481c0040fb290082fe070011c0b300b0c0b300fa
:10482c0027fe0700a0fb29007dfe07000000eb001f
:10483c003e0107008000eb00d4ef07003233230069
:10484c0033052400d3ef070002002f00f357240098
:10485c0085f00700004088001140880010002000ff
:10486c00320107008000eb00c8ef07003233230051
:10487c0033052400c7ef070002002f00f357240074
:10488c0079f007002040880031408800200020008b
:10489c00260107008000eb00bcef07003233230039
:1048ac0033052400bbef070002002f00f357240050
:1048bc006df0070040408800514088003000200017
:1048cc001a0107008000eb00b0ef07003233230021
:1048dc0033052400afef070002002f00f35724002c
:1048ec0061f00700604088007140880040002000a3
:1048fc000e0107008000eb00a4ef07003233230009
:10490c0033052400a3ef070002002f00f357240007
:10491c0055f007008040880091408800500020002e
:10492c00020107008000eb0098ef070032332300f0
:10493c003305240097ef070002002f00f3572400e3
:10494c0049f00700a0408800b1408800004080007a
:10495c001140800082812000809fbe0000fc290055
:10496c00801f7800020078005af20700e687570093
:10497c00204080003140800022822000809fbe00b9
:10498c0000fc2900801f78000200780051f207001b
:10499c00e68757004040800051408000c2822000d2
:1049ac00809fbe0000fc2900801f78000200780068
:1049bc0048f20700e6875700604080007140800095
:1049cc0062832000809fbe0000fc2900801f7800bd
:1049dc00020078003ff20700e68757008040800015
:1049ec009140800002842000809fbe0000fc2900c2
:1049fc00801f78000200780036f20700e687570027
:104a0c00a0408000b1408000a2842000809fbe00a6
:104a1c0000fc2900801f7800020078002df20700ae
:104a2c00e68757008040eb0060c0b300a4fd070090
:104a3c0080812000fafd070011c0b30060c0b300f4
:104a4c009ffd070020822000f5fd070021c0b30068
:104a5c0060c0b3009afd0700c0822000f0fd070083
:104a6c0031c0b30060c0b30095fd07006083200027
:104a7c00ebfd07008040eb0000c1b30090fd070088
:104a8c0000842000e6fd070011c0b30000c1b30094
:104a9c008bfd0700a0842000e1fd070063ff3700b9
:020000040000fa
:104aac005408000002000000000000000008000094
:104abc005400000000000000560800000200000036
:104acc0000000000380900001a000000020000007d
:104adc00686a6c00747a4c0000000100000200004f
:104aec000400080000100000000020002b2d230003
:104afc003000000058080000880000000200000090
:104b0c0001000000007e08007f087e00087e08007f
:104b1c007e087e00086e0800000000000000000007
:104b2c000000000000000000000000000000000079
:104b3c0000000000000208000101a60008a7080000
:104b4c00a608a60008a60800a60896000800000003
:104b5c000000000000000000000000000000000049
:104b6c00000000000000000000000200080202002b
:104b7c00ce08cf0008ce0800ce08ce0008ce080024
:104b8c00be08000000000000000000000000000053
:104b9c000000000000000000000000000000000009
:104bac005808800008a80800000000000000000061
:104bbc000000000000000000e008000058000000a9
:104bcc00020000006e616e00004e41004e00690054
:104bdc006e660000494e4600000000000000000018
:104bec0000244000000000000000000059400000bc
:104bfc00000000000088c30040000000000084009a
:104c0c00d79741000080e0003779c300414317007b
:104c1c006e05b500b5b8930046f5f9003fe9030001
:104c2c004f384d00321d3000f9487700825a3c0055
:104c3c00bf737f00dd4f15007500000056090000a2
:104c4c0002000000020000003000000058090000c3
:104c5c0002000000000000005a09000002000000e1
:104c6c0002000000040000005209000004000000d3
:104c7c00000000005c0900000200000002000000bf
:104c8c00010000005e0900000200000000000000ae
:044c9c000000000014
:020000040000fa
:104ca0000000fa00001680003000b30000168800f3
:104cb00040168000f000b3004016880061198000a3
:104cc00000fc2f00008060006019880021e3a9002b
:104cd0002143a80001198000f0cf2f000080600060
:104ce0000019880001198000f0f12f000080600099
:104cf000001988002043a9002023a9001119800071
:104d0000f0ff210000806000101988001119800058
:104d1000f0cf2f00008060001019880028e3a90060
:104d200025e3a90030c1b30024e3b70021e3a800c4
:104d30000080fa00000006000200fa00000f780070
:104d40001e007800004078007f4060000080fb007b
:104d50007f0060004219800001fe2f008100610089
:104d600001007000401988002023a800803821002d
:104d700001002000090007002023a9000000000016
:104d800000198000610060000000e000fcff3200bc
:0c4d9000001880000080fa0000000600ff
:020000040000fa
:104d9c00f03fb1000180b10006003500ee030900c0
:104dac0000000000403fb1000180b100fbff3d005e
:104dbc001000b000203fb000020035000080090058
:084dcc000000000000000600d9
:020000040000fa
:0200000401f009
:04000000ffffff00ff
:020000040000fa
:0200000401f009
:04000800ffffff00f7
:020000040000fa
:0200000401f009
:04000c00820000006e
:020000040000fa
:0200000401f009
:04001000a500000047
:020000040000fa
:0200000401f009
:040014005f00000089
:020000040000fa
:0200000401f009
:04001800f7000000ed
:020000040000fa
:0200000401f009
:04001c00dfff000002
:00000001FF
