:020000040000fa
:080000000001040000000000f3
:020000040000fa
:0400080006030000eb
:020000040000fa
:04000c0006030000e7
:020000040000fa
:0400100006030000e3
:020000040000fa
:0400140006030000df
:020000040000fa
:0400180006030000db
:020000040000fa
:04001c0006030000d7
:020000040000fa
:0400200006030000d3
:020000040000fa
:0400240006030000cf
:020000040000fa
:0400280006030000cb
:020000040000fa
:04002c0006030000c7
:020000040000fa
:0400300006030000c3
:020000040000fa
:04003400dc010000eb
:020000040000fa
:0400380006030000bb
:020000040000fa
:04003c0006030000b7
:020000040000fa
:0400400006030000b3
:020000040000fa
:0400440006030000af
:020000040000fa
:0400480006030000ab
:020000040000fa
:04004c0006030000a7
:020000040000fa
:0400500006030000a3
:020000040000fa
:04005400060300009f
:020000040000fa
:04005800060300009b
:020000040000fa
:04005c000603000097
:020000040000fa
:040060000603000093
:020000040000fa
:04006400060300008f
:020000040000fa
:04006800060300008b
:020000040000fa
:04006c000603000087
:020000040000fa
:040070000603000083
:020000040000fa
:04007400060300007f
:020000040000fa
:04007800060300007b
:020000040000fa
:04007c000603000077
:020000040000fa
:040080000603000073
:020000040000fa
:04008400060300006f
:020000040000fa
:040088007e020000f4
:020000040000fa
:04008c000603000067
:020000040000fa
:040090000603000063
:020000040000fa
:04009400060300005f
:020000040000fa
:04009800060300005b
:020000040000fa
:04009c000603000057
:020000040000fa
:0400a0000603000053
:020000040000fa
:0400a400060300004f
:020000040000fa
:0400a800060300004b
:020000040000fa
:0400ac000603000047
:020000040000fa
:0400b0000603000043
:020000040000fa
:0400b400060300003f
:020000040000fa
:0400b800060300003b
:020000040000fa
:0400bc000603000037
:020000040000fa
:0400c0000603000033
:020000040000fa
:0400c400060300002f
:020000040000fa
:0400c800060300002b
:020000040000fa
:0400cc000603000027
:020000040000fa
:0400d0000603000023
:020000040000fa
:0400d400060300001f
:020000040000fa
:0400d800060300001b
:020000040000fa
:0401080006030000ea
:020000040000fa
:04010c0006030000e6
:020000040000fa
:0401100006030000e2
:020000040000fa
:0401140006030000de
:020000040000fa
:0401180006030000da
:020000040000fa
:04011c0006030000d6
:020000040000fa
:0401200006030000d2
:020000040000fa
:0401240006030000ce
:020000040000fa
:0401280006030000ca
:020000040000fa
:04012c0006030000c6
:020000040000fa
:0401300006030000c2
:020000040000fa
:04013400dc010000ea
:020000040000fa
:0401380006030000ba
:020000040000fa
:04013c0006030000b6
:020000040000fa
:0401400006030000b2
:020000040000fa
:0401440006030000ae
:020000040000fa
:0401480006030000aa
:020000040000fa
:04014c0006030000a6
:020000040000fa
:0401500006030000a2
:020000040000fa
:04015400060300009e
:020000040000fa
:04015800060300009a
:020000040000fa
:04015c000603000096
:020000040000fa
:040160000603000092
:020000040000fa
:04016400060300008e
:020000040000fa
:04016800060300008a
:020000040000fa
:04016c000603000086
:020000040000fa
:040170000603000082
:020000040000fa
:04017400060300007e
:020000040000fa
:04017800060300007a
:020000040000fa
:04017c000603000076
:020000040000fa
:040180000603000072
:020000040000fa
:04018400060300006e
:020000040000fa
:040188007e020000f3
:020000040000fa
:04018c000603000066
:020000040000fa
:040190000603000062
:020000040000fa
:04019400060300005e
:020000040000fa
:04019800060300005a
:020000040000fa
:04019c000603000056
:020000040000fa
:0401a0000603000052
:020000040000fa
:0401a400060300004e
:020000040000fa
:0401a800060300004a
:020000040000fa
:0401ac000603000046
:020000040000fa
:0401b0000603000042
:020000040000fa
:0401b400060300003e
:020000040000fa
:0401b800060300003a
:020000040000fa
:0401bc000603000036
:020000040000fa
:0401c0000603000032
:020000040000fa
:0401c400060300002e
:020000040000fa
:0401c800060300002a
:020000040000fa
:0401cc000603000026
:020000040000fa
:0401d0000603000022
:020000040000fa
:0401d400060300001e
:020000040000fa
:0401d800060300001a
:020000040000fa
:10020000cfa120000eff20000e018800000000009a
:10021000000020000000e000020032000001200089
:1002200020028800140007002d0107000000e000f4
:1002300003003a006049220001002000020037005c
:100240000000200001002000810f7000010032003a
:1002500014000700000020000000e000020032004f
:1002600000000200000000007e27020000000000e5
:100270000040da000000fe004440a9008000200099
:100280000000e0000300320000002000a001880010
:100290004440a800000006008a1f78008b1f7800e9
:1002a0000000060091018800800478000000eb0047
:1002b0001a003700e284440032a0b4009905ba0065
:1002c000e284440032a0b4009906ba00e2844400fb
:1002d00032a0b4000006eb00476fde00fd07b2005d
:1002e000636ce10003003a00ebff07000000eb0045
:1002f0000a003700606ce10004003a00005deb008a
:100300008b05e900fdff3e00040037006168e10055
:10031000010032000086eb000b00070019c7ba008d
:100320001905ba000e04e00003003a000a00e000dc
:10033000e0ff3a0000000600fe07b2009e018800c0
:100340008a047800f5ff3700395dba008b05e900b3
:100350000c003200295dba008b05e900080032006c
:100360000c00e00003003a00e284440032a0b40034
:10037000f5ff370019ddba008b05e900faff3a00f6
:100380008904e800e184440032a0b40000000600c3
:10039000000000000000000000000000000000005d
:1003a000000000000000000000000000000000004d
:1003b00000000000000000003600f800809fbe0032
:1003c000829fbe00849fbe00869fbe000000fa0090
:1003d00030088000004088000621ef0000408000c7
:1003e0008000eb007e0107000200200003272400ac
:1003f000d00107009299290093f923001701070003
:10040000204088003140880020408000314080003a
:10041000b2fd2000930c2400c6010700020020005a
:10042000032724000d010700404088005140880048
:100430004240800053408000604080007140800056
:100440000202be000001be0080872000731007007a
:1004500002002c0073442400b6010700d2cc2c000b
:1004600043112400fd00070080408800914088006f
:1004700080408000914080003e010700000078002d
:10048000000c88004040800051408000809fbe00ea
:10049000602d2a00801f780040812000360607006a
:1004a000e68757004081200006120700b016800042
:1004b0004300de006140600000c0ea00614060006f
:1004c0000080fb00610060004300dd00b116800089
:1004d0000130a10001007000b01688008460a900fe
:1004e0000080fa004f03be004f02be004f01be0065
:1004f0004f00be003600f900004006003600f8004c
:10050000809fbe00829fbe00849fbe00869fbe006b
:100510000200fa00c0108000620060000000e000ed
:10052000020032001822a9000a003700c010800023
:10053000680060000000e00006003a00c010800083
:10054000640060000000e00002003a00e01080005b
:10055000004f780040c4b3009e40780080cf500028
:1005600003003a00cb22a900cb42a8001f003700ad
:1005700090c4b3009e40780080cf500003003a0042
:10058000cb22a800cb42a9001800370080c7b300d7
:100590009e40780080cf50000d003a006011b800f6
:1005a0008000eb0060842000f701070060408800b5
:1005b0007140880010408000000178008000eb004e
:1005c00060842000e90107000228ef0007003700df
:1005d0001140800060842000008040001e487800a8
:1005e000104080000000e800104088008700a9004b
:1005f0000080fa004f03be004f02be004f01be0054
:100600004f00be003600f900004006000040da004e
:100610000000fe000a00fa0011002000b1bf9f0098
:10062000c0bf9f006a805700e40c07004fb89700d6
:100630000080fa00000006000a00fa0051002000c5
:10064000b1bf9f00c0bf9f006a805700dd0c07004c
:100650005fb897000080fa0000000600889fbe0087
:1006600080047800d05080000000e00004003a00d0
:100670000e0007000084eb000000e00008003500d9
:10068000d85080000900e000050032000900440055
:10069000060007000000e00001003d000084eb00c0
:1006a000080078004f04be000000060080007800bb
:1006b0000100e00003003a0000002000d050880054
:1006c000000005000080eb0002002000828f500037
:1006d00002003e00d15088000000eb000000060040
:1006e0000000050003f0a200889fbe008a9fbe00a4
:1006f0008c1f7800f7000700fe0033006450e10013
:100700004f0032006420e1005200320003826c008e
:1007100007003b000905d0000306d000820f5400fb
:100720000c065d00020039000200320089017800e9
:10073000030678008582550004003d000003fd009b
:100740008103fd008502ea008b854200840f720060
:1007500002003b0060001000e08018006011b8004b
:100760000005eb007a28e1000a0039000600780055
:10077000c75ddd00f707b200878075002d003700e8
:10078000828171000a017800610560008180d100da
:100790000080d3008502e900f9ff3b000604400019
:1007a0008784480002003b0060041400e0841c00c1
:1007b0000988a300070032008a81710082817100dc
:1007c000610164008904d1000884d3008b05e8002e
:1007d000170037000978a30013003a000b00e0006f
:1007e000130034008b05e9000804440089844c00a0
:1007f0000a4474000978a3000d003a000b00e000e1
:10080000070034008b05e9000804440089844c008b
:1008100001003a000b0020000978a300f7ff320026
:100820000001eb0002003700828171000a017800ac
:100830006d0007000cf0a70001f0a000b600370023
:100840006420e10002003a00838f6c00b6003300a0
:100850000801be000200be00af003700889fbe0046
:100860008a9fbe008c1f78009a000700a100330009
:1008700003866c006450e1002e0032006420e10029
:10088000330032006150e1002f0032006120e100ae
:100890003100320085855500eb07b00009002000cb
:1008a00008042000050037000804440089844c0037
:1008b0000a0031000603430087834b000001530008
:1008c00081815b00f8ff33000203be000800a00036
:1008d0000804440089844c00f6ff3900c639dd0065
:1008e0008301730001003200130020008904d1004d
:1008f0000884d3000998a300050032000800a7006f
:100900000300a0008904d1000884d3008b05e8000f
:100910008904d1000884d3000001eb000281d200d9
:100920003100070001f0a1000cf0a70001f0a000c9
:10093000790037006420e1007b0032000801be002e
:100940000200be00f7ff37006120e10076003200b0
:100950006000b800f3ff37000000200001f8270016
:10096000f0ff370014002000b6003700f4ff2f001e
:10097000b40037000001be00410007000470a7006a
:1009800003f0a10003f8a30013003a006509b100c9
:1009900010003200090035006928e100020035002e
:1009a0000100280000000500000040008180480090
:1009b0008502e900fcff3a0000000600f88f4200c3
:1009c000050035008100d1000080d3008502e800d9
:1009d000fcff3a00000006008000eb00000005006c
:1009e0006011b800b200370081002000618055001e
:1009f0000b003d000b00200061fe2f000100e10014
:100a00001d00340082817100610164008904d100fd
:100a10000884d3000000e800faff3a0071002000cb
:100a200061006400030070000200600009003200f1
:100a300061044400e0844c000988a50005003200f0
:100a40008b05e8006808e10002003a008904d10043
:100a50000884d300f20f20000258e10005003d0099
:100a6000c75ddd00f907b2008980750008007800d5
:100a7000000006000bf827008b007800000005003e
:100a8000c70ade00f107b200f50fb200080032001d
:100a9000e1cf4200020032000170a00024000500f6
:100aa000810f7000010032000408050044000500b9
:100ab000810f700002003a00140005008502e90071
:100ac0000000400081c04800fcff3b000170a00016
:100ad000240005000004be00e9ff07000003be007b
:100ae0000405be000200be00e5ff0700844f75004c
:100af000000006000200be006450e1000500360060
:100b00006420e100020036000968a30001003a00f9
:100b10000800be000160a0004f0678004f05be002f
:100b20004f04be0000000600f0ff2f00f1ff270079
:100b3000f9ff3700889fbe008a9fbe008c1f780097
:100b4000e4ff0700ebff330003866c006450e10014
:100b5000240032006420e100270032006150e100ef
:100b6000220032006120e100210032008b8542002a
:100b7000eb07b1000134b800003ab80008044200a5
:100b800089844a00013ab8000030b80088804000eb
:100b900009014a0004003300000040008180480041
:100ba000020149008b05e900c909dd0083017000dd
:100bb0000100320013002000c814de004814dd00dc
:100bc0004709de001200b200c808de000884700089
:100bd00085ff070001f0a1000cf0a70001f0a000c4
:100be000cdff37006120e100cfff32000801be00d9
:100bf0000200be00f7ff37006150e100fcff3a0041
:100c0000c9ff37006022b800060220000000d000b3
:100c10008180d2000482d2008582d2000000a00030
:100c20000202520083825a00030031000202420095
:100c300083824a000000a1000603e900f3ff3a00a6
:100c400000000600889fbe008a9fbe00841f7800b7
:100c5000a0ff07004f00780011003300f0ff2f00c5
:100c6000838f6c0006003b00040565000a00a700a6
:100c70000800370009f0a600100020000800370027
:100c8000820f5400838f5c000300390010002000a5
:100c900001003e000000200009f0a7000000ea006b
:100ca0004f05be004f04be000000e000000006003b
:100cb000889fbe008a9fbe000082700004027100ff
:100cc00004827100260032000004be000200be0053
:100cd0006011b8006b092000950220000182cf004e
:100ce0000a0039000541b1000082cf000700390039
:100cf0000541b1000982cf00040039000541b1006f
:100d00000882cf00010039000541b10005425200c0
:100d1000120032000a003b00828171006101640010
:100d20008100d1000080d3008984d3000884d300df
:100d30008b05e8000442e800f7ff3a00070037009f
:100d40000804440089844c00000048008180480069
:100d50008b05e9000442e900f9ff3a0022ff070091
:100d60004f05be004f04be00000006008001780061
:100d700002003700815978000201e9000200e0001a
:100d8000fcff3a00000006000e00fa00889fbe003b
:100d90008a9fbe008c1f7800a0bf9f0001047800ce
:100da0000205be0080047800880078006c8057003f
:100db0003301070068066000000278000430a100db
:100dc000e10f520013003a00f48157000801780047
:100dd000afb8970009007800410007000000e0006c
:100de00002003a006000b800030037000fb8970017
:100df0009fb89700330c0700c0b79f00d1b79f0082
:100e00006fb19700ffb197000a0141008b81490043
:100e100016003700e20f520018003a0014002000bc
:100e2000f481570008017800afb8970009007800f6
:100e3000a40107000000e00002003a006000b800d2
:100e4000030037000fb897009fb897001d0c0700ec
:100e5000c0b79f00d1b79f006fb19700ffb1970057
:100e600078805700260307000a01be004fb09700a4
:100e7000dfb09700b50207000d003700e30f520006
:100e800003003a000000200001f8270005003700a9
:100e90006000b800e40f520005003a00f0ff2f0098
:100ea000f1ff2700c0b79f00d1b79f0002003700b5
:100eb000c0b79f00d1b79f004fb09700dfb0970039
:100ec0000c00e0000100320001f0a2004f067800a3
:100ed0004f05be004f04be000080fa00000006006f
:100ee000ea874700889fbe008a9fbe008c9fbe0095
:100ef0008e1f7800d0b79f00e2b79f0003047800f0
:100f00006722b900840678000006eb000100370074
:100f10001c002000810578008b00780000c3b3001e
:100f2000b14f1000faff3200000ceb0038147800cb
:100f3000080578008004eb00290037008d8f5400ed
:100f400017003d0072002000110009008204d80043
:100f50000100e00003003a0064054500001deb00bd
:100f60000015eb001b02fb00cfa2de000403b10062
:100f70000580b100a2002000030020001a00be007e
:100f8000f4b79f0085bf9f00490c07007fb2970010
:100f90008fba9700001d420001954a000d003700ee
:100fa0001000200001002000180c40005894480058
:100fb0008d8f540008003a0040c3b3009b4f1000cf
:100fc0000500340012002000030020001a0d41002b
:100fd0005a9549008904e8008b05e8001c002000b0
:100fe0001b4078008000fb000103b100e98f500036
:100ff000d2ff36008d8f5400010034008d0478003c
:10100000e1c2b300814f500001003a008b05e800b7
:101010000900e0002b003a000b00780005003700c3
:101020000081eb008081eb00180c410058944900ce
:101030001c0020008005780001c3b300b0cf100071
:10104000f7ff32001f0037008d8f54001c003d0059
:1010500072002000110009008204d8000100e000a5
:1010600003003a0064054500001deb000015eb008d
:101070007bfa97000402fb00cfa2de000403b1005c
:101080000580b100a2002000030020001a00be006d
:10109000f4b79f0085bf9f00050c07007fb2970043
:1010a0008fba9700001d420001954a008904e800ac
:1010b0000080eb008080eb00180c40005894480042
:1010c0001c0020000b0778008e0578003b00fb0019
:1010d0000003b100e90f5000dbff36008c057800fb
:1010e0007d002000110009008d04d8000100e000ff
:1010f00016003200818656001a01be00e00f510032
:10110000e08f5900070032000d00e9004200dd00c9
:10111000a19b2000008040001000be00e40b0700ef
:10112000008dbe00898446006168b900181c10005b
:101130001894180005003700e7845400720020005e
:1011400003002000180c410058944900e68f540019
:10115000040034002a00be00e00f5000e08f580069
:10116000f5ff32000c00e000340032001e40780031
:1011700051c6b300814f50000300320051c4b30088
:10118000814f50002c003a005e457800b0c2b30099
:10119000804f550003003200d1c2b300814f55008b
:1011a00002003a000e07e800010037000045780011
:1011b0000e0678006000b8008005eb000f003700d5
:1011c000f20f2e00535f2000820f5000838f5800d3
:1011d00009003c00a200200003002000b40b07001f
:1011e0000d01fb00cf91de000203b1000380b100ce
:1011f00002004000838048001b0020000c0778009c
:101200000e067800bc4678000d01fb000203b10019
:10121000e90f5100eaff3600d2c2b300824f5500f9
:1012200002003a0060001000e0801800180c400036
:1012300058944800010037008c057800efb1970002
:101240000300e000050032000b00e00001003a005e
:101250005fb797006fb097000e087800720020000b
:10126000110009008204d8004f0778004f06be0025
:101270004f05be004f04be00af00b10000000600e5
:10128000889fbe008a9fbe008c9fbe00000478002d
:101290000106780098047800890578000b0578002d
:1012a0008a057800bb4678000d00fb008b01070023
:1012b0000000e000f9ff3a00d0c2b30080cf560032
:1012c00003003a000b05780081002000050037007c
:1012d0008000eb00b0c2b30080cf560001003a009e
:1012e0000b0578001a407800e2c6b300824f500028
:1012f00003003200e2c4b300824f500027003a00de
:101300008a0078005141780010c6b300804f510028
:10131000040032000000eb0013c4b300834f5100ff
:101320005c003a0051417800e0c6b300804f5100a4
:10133000040032000000eb00e3c4b300834f51000f
:1013400054003a008104780080c2b300d94f1000e5
:101350000b003a00640545008a057800ba4678001b
:101360000d00fb004f0107000000e000faff3a000b
:10137000f0c5b30080cf5600f7ff32000100370000
:10138000890578004000200091c2b3009bcf100077
:1013900040003a008b04e8003e00370092c6b300dc
:1013a000824f50000300320092c4b300824f5000bd
:1013b0003c003a005a417800e0c6b300804f51002b
:1013c000040032000000eb00e3c4b300834f51007f
:1013d00030003a005a41780060c6b300804f510097
:1013e000040032000000eb0063c4b300834f5100df
:1013f00028003a008a047800010078003000b30029
:10140000d940780092c6b30082cf5000030032006a
:1014100092c4b30082cf50001e003a0089007800c9
:1014200051417800e3c6b300834f510003003200fe
:10143000e3c4b300834f510016003a0051417800d5
:1014400093c6b300834f51000300320093c4b3002e
:10145000834f51000f003a005141780043c7b30059
:10146000834f51000300320043c5b300834f510046
:1014700008003a005141780093c7b300834f5100f0
:101480000300320093c5b300834f510001003a00be
:101490008104e8000c00e00005003200090e78002d
:1014a00003003700010078000000a0008a047800e3
:1014b000090c78004f06be004f05be004f04be0069
:1014c00000000600e8874700889fbe008a9fbe0094
:1014d0008c9fbe008e1f7800e0b79f0082047800ca
:1014e000030478006722b9000006eb000100370012
:1014f0001c0020008101780000c3b300b14f100030
:10150000fbff3200000ceb003814780088057800ef
:101510000005eb002a003700840f550016003d003f
:1015200072002000110009000205d8000100e0004f
:1015300003003a00e4854500801deb008015eb00b8
:101540001b06be00446bdd00cc63de008703730026
:101550004463dd00219a200001805200c1982000e0
:10156000614078000000fb00cf80de00801d43005a
:1015700081954b0010003700100020000100200072
:10158000180c400058944800840f55000b003a0096
:10159000219a200001805200c1982000614078000b
:1015a000e74f50000500340010002000010020002b
:1015b0009b0d4000db9548000a05e8001c00200058
:1015c000830678008d017800334778008e00fb0099
:1015d00062012000209a2000f3b79f0084bf9f0083
:1015e0006805070080027800ffb197000fba9700e6
:1015f0000500e000c8ff3a00840f550001003400e8
:1016000004057800e0c2b300804f570001003a00a3
:101610008d06e8000a00e00029003a000d0078007d
:10162000050037000081eb008081eb00180c4100c1
:10163000589449001c0020008006780001c3b300c4
:10164000b0cf1000f7ff32001d003700840f5500a7
:101650001a003d0072002000110009000205d800a8
:101660000100e00003003a00e4854500801deb0026
:101670008015eb001b03be004439dd00cc31de00d9
:10168000830171004431dd00219a20000180520065
:10169000c1982000614078000000fb00cf80de0090
:1016a000801d4100819549000a05e8000081eb009a
:1016b0008081eb00180c4100589449001c00200068
:1016c0000d0778008e067800bd00fb006201200047
:1016d000209a200084bf9f002a050700800278001e
:1016e0000fba97000500e000d8ff3a000c0178001f
:1016f00073002000110009000305d8000100e0007c
:101700001300320001805100c200dd001b02be0048
:101710008100e900030033000402420085824a0090
:10172000fbff3700848dbe000a054000cf80de003d
:10173000181c1000189418000500370067055500a4
:101740007000200001002000180c40005894480050
:10175000e60f5500040034002b00be00e00f5000df
:10176000e08f5800f5ff32001800be00420add008d
:10177000ce02de00850272004202dd00048cbe0053
:101780000c00e000380032001e40780001c7b300b2
:10179000814f50000300320001c5b300814f50005b
:1017a00030003a000e067800dc457800b0c2b30085
:1017b00080cf550003003200d1c2b30081cf550065
:1017c00002003a000c06e80001003700804578006e
:1017d0006000b8000001eb0013003700f20f2e008c
:1017e000535f2000820f5000838f58000d003c0093
:1017f000a20020000300200084bf9f00f5b79f00d7
:101800002b0a07000d01fb00cf91de000203b1009f
:101810000380b1000200400083804800ffb29700bf
:101820000fba9700120020000c0778000e0678000f
:10183000bc4678008d01fb000303b100e98f510025
:10184000e6ff3600d3c2b30083cf550002003a0052
:1018500060001000e0801800041c4000059448005f
:10186000010037000c0178000900e000040032009c
:101870000200e00001003a006fb797008e0c78007c
:1018800072002000110009000205d8004f077800ff
:101890004f06be004f05be004f04be008f00b100d2
:1018a000000006000003b1000b0035009000b100fd
:1018b000080034008000b100070035009001b1003d
:1018c000040034007000b100030035009001b10045
:1018d00001003c0010000500000005006900e10067
:1018e000040035006d00e100030034000002b10087
:1018f0000100320000000500100005000600fa009b
:10190000881f7800000478008800780068805700fd
:10191000d2bf9f00e3bf9f00d50007005fb99700cb
:10192000efb997001800be0082fc0700008cbe00d3
:101930004fb99700cf91de000800780070000700d3
:101940004f0478000080fa00000006000400fa004e
:10195000889fbe008a1f7800b0bf9f00c1bf9f0054
:101960000204be00e00f5100e08f59005e0032001b
:101970006011b800fbfb07000000e0005a003200d5
:10198000e00f5400e08f5c002a003d00600414006a
:10199000e0841c000005eb000000200001f823009b
:1019a0000808a30005003200c251dd00429f20005c
:1019b000028141001201be005efc07008904d100d3
:1019c0000884d300e00f5400e08f5c000300320075
:1019d0000a05e800e50f5500f1ff3a000001be00de
:1019e0000000200001f823009cfb07000001be005e
:1019f0006a805700c1ff07000000e00032003d0090
:101a0000e00f5400e08f5c0037003200e2112b0041
:101a1000f3a420006a805700b8ff07000000e00030
:101a200029003d0061045400e0845c00f7ff3a00a7
:101a3000290037000005eb000000200001f823001a
:101a40000808a30005003200c251dd00429f2000bb
:101a5000028141001201be0036fc07008984d100da
:101a60000884d300e00f5400e08f5c0003003200d4
:101a70000a05e800e50f5500f1ff3a000001be003d
:101a80006a8057009dff07000000e0000e003d0047
:101a9000e00f5400e08f5c0013003200e25a2c008b
:101aa000d34927006a80570094ff07000000e00038
:101ab00005003d0061045400e0845c004240a90040
:101ac000f6ff3c00040037000000e00002003a008e
:101ad0000001200003003700e10f500002003a002f
:101ae00080002000860007003fb89700cfb897001d
:101af0004f0578004f04be000080fa000000060089
:101b00000400fa00889fbe00000478008804780072
:101b1000590078004702de0084007800f10fb2001f
:101b2000e14f420009003a0080007800f107b2005e
:101b3000200020004b003a00100020001800e000b8
:101b40004800320020002000460037000100e0007d
:101b50000a003a0008007800c2bf9f00d3bf9f0070
:101b600025040700800078000000eb004fb99700c3
:101b7000dfb997000100e0003a003c004f88de002a
:101b80000281400083014800e00f2000800f5100d7
:101b9000e08f59000a0034001900e00003003d0006
:101ba0000000200001f82f00020037000000200094
:101bb00001f82700008cbe0010002000290037002b
:101bc000e00f5100e08f5900050034004711dd009f
:101bd000f007280019006000800c71002000370019
:101be000990078000000280000806000f10fb2002a
:101bf0000170a000810c780061015100e081590062
:101c0000f70f4100e08f490004003d00800c780090
:101c1000000ceb000000eb0012003700ef0f41005a
:101c200003003d00010c7800800ceb0070014100c6
:101c30000201ea0009003200f00011009901780069
:101c40008119dd00980078008208de00018c7100a7
:101c5000990078000209de00820c7800990c70006f
:101c60000080eb004f04be000080fa000000060078
:101c7000889fbe000004be0000f8270059006000e5
:101c80004700de00f20f2000820f50000a003a00e9
:101c9000000ceb00f2072000190161002000200079
:101ca00015003a00100020001100e0001200320080
:101cb00020002000100037000000e00004003a007f
:101cc00001007800cc0307000000e00008003c00a1
:101cd000f20728001901610001f02300810c710056
:101ce00021f82f00010c40000080eb0002003700bb
:101cf000000ceb000000eb004f04be0000000600eb
:101d0000e5006000030032001002200060508800ef
:101d1000000006007800600002003200200220006f
:101d20006050880000000600889fbe008004780094
:101d30000203be00010478006149b800898fd20017
:101d40008381d200080278000600be001f0707004a
:101d5000088044004f04be0000000600881f780081
:101d60000204780008017800900307000800400092
:101d70004f047800000006000000fa00881f780079
:101d8000000478006a825700bfb997000801780004
:101d900041e92000e0ea2000160007000000e00012
:101da000020035008040eb00017478004f04780099
:101db0000080fa0000000600889fbe000004780042
:101dc0000203be00810478000802780089017800cf
:101dd000120020000600be00b6040700890f500064
:101de000010032000004eb00080078004f04be0040
:101df000000006006800fa00889fbe008a9fbe00af
:101e000080047800010478008205780003057800da
:101e10008400780000f92f000f004000a3040700a1
:101e2000d98f9f00fb8f9f000000eb00a09f9f00b9
:101e3000e88f9f009a84fb000904fb008904ea00f4
:101e4000cf4cde0050022000800f54000d00320005
:101e5000e18f54000b003a00090178008a007800f5
:101e60007f889700df89970003000100f08f9f00b3
:101e70000000e000950032002f9897000000e80075
:101e8000a09f9f000905450050022000800f5400cc
:101e9000040032000800e000e6ff3a002f989700a7
:101ea0008b0037000000eb00809f9f00f0979f00a1
:101eb000e0979f00d0979f00c0979f00b0979f002a
:101ec00007003700e19e20000100500000004000a4
:101ed000219e200061007800cf98970001007000db
:101ee000c09f9f000a04780008057800ba44780073
:101ef0008900fb00e09e2000330307000000e000a3
:101f0000f0ff3a00a1c2b30081cf54000e003a00a6
:101f10008f8897000180e900808f9f001000780073
:101f2000b09f9f000000e00005003d000000ea00b7
:101f3000b09f9f004f9897000020a000c09f9f0077
:101f40000804e80010003700b09f9f008800780068
:101f50000000eb0005003700f3ff2700830f50005f
:101f6000020032006a02b900040041000104780056
:101f7000880078003101fb000203b100e90f510035
:101f8000f5ff3600b09f9f00e0c2b300984f1000ed
:101f9000020032000080eb0019003700a0c2b3003d
:101fa000d84f100007003a008f8897000180e900a1
:101fb000808f9f0010007800909f9f000804e80029
:101fc000100037000000eb00909f9f008800780011
:101fd00005003700f3ff2700830f50000200320096
:101fe0006a02b9000400410001047800880078000a
:101ff0003101fb000203b100e90f5100f5ff36008b
:10200000909f9f00984478008900fb00a09d2000cd
:10201000ed0207000000e000020032000804e800c2
:10202000010037008044eb00a97f9f0080c6b30009
:1020300080cf540006003a0098cf140010003a00f8
:1020400066405000a07f9f000804e8000c003700a5
:10205000c0c6b30080cf540009003a0098cf1400e6
:1020600007003a0067404000d84f100002003a00d5
:102070006e4050000100370010c7b300a07f9f00e2
:102080001801fb00c3fb2f008f81410001f92f00d5
:102090008f80400020f92f000f004000150007003e
:1020a0000000e00009003a00c1fb2f008f804000d3
:1020b00020f92f000f004000220307000000e0007d
:1020c000020035000805e8005aff37000080eb00e9
:1020d0004f05be004f04be000080fa00000006005d
:1020e000030278008201780001017800c1ed200030
:1020f00040ff3700889fbe008a1f780000047800e8
:10210000824478000305780070c4b30080cf540087
:102110000a003c0000c0e90080cf54000f003d00e1
:1021200050c2b30080cf5400350032007c404000e4
:1021300080cf540035003a000800370010c6b300c5
:1021400080cf54000500320030003500b0c9b30024
:1021500000c04400e24f50002c003e00086990008f
:10216000c0c4b300804f510006003a00110178004e
:1021700068005100800878005001be004000be0099
:1021800005003700110178006400510080087800d4
:102190001000be00fd060700009cbe000294be00b9
:1021a000b8009000280890000100e00002003d0007
:1021b000d1c2b30008003700b81090000118a30086
:1021c00002003200b1c2b300030037000108a300cf
:1021d0000400320001c2b300017578000000e8007d
:1021e000200c980028089000000545007a0498000b
:1021f0008900fb0008007800100007000b00370082
:10220000280890000975780006003700280890001b
:10221000000545000904e00001003a0059c2b3007e
:10222000094d78000000e800200c98000000eb0049
:102230004f0578004f04be00000006002f04b000d8
:10224000889fbe008a9fbe008c9fbe008e1f7800b4
:102250000007780081f79f003e04be002e05be00f7
:102260000e1090000000e00002003d006000200021
:10227000001798008e00780020fb2f000f00400010
:1022800086020700e20f50000a003a0030002000ea
:10229000400f9800b1c9b3000ff097008140400093
:1022a00080932000e1cf50000d003e0040932000bd
:1022b0000b0037000000e0000f0034003000200069
:1022c000400f9800b1c9b3000ff197008140410061
:1022d00000942000e1cf500001003e00c093200098
:1022e000fe009000b0487800b06878001040780098
:1022f00090409800f30037000000e00005003a002d
:1023000022fb2f000f014100001978008001eb0033
:10231000e70037006022b8006033b8000800be0054
:102320000a01be00e10507000000e00001003d00d9
:102330000bf0a200705927009f9897000088b90001
:10234000026a2800130020003c06070064065000c3
:102350009c9f9f0013003b0063061600c0ff2f00e8
:10236000000666008c01ea00939f9f004d942000b8
:102370000800be000a01be00070037000c08a300d9
:10238000030032003d02be002d03be00d006070050
:102390000c86d100e88646000c00e000f7ff3c0008
:1023a000180037000c00e00018003200c0ff2f00ba
:1023b000000666009c9f9f004d9420006000b800be
:1023c0000200200003ff2300070037000c08a300d1
:1023d000030032003d02be002d03be00bc06070014
:1023e0000c86d100e88646000c00e000f7ff3c00b8
:1023f0000002be000203be000800be000a01be00cb
:10240000b40507000004be000205be008e10900057
:1024100060c6b3000ff29700804f520004003200f4
:102420006000200062c4b300824f520002003a00f4
:102430009f9a97006a80420081004000f1b79f0098
:1024400001037800f30f530002003400370120002d
:10245000f7b79f0000c3b300c0779f0056fb2f0063
:102460000f0343000e007800a0b79f000607780016
:102470003d0037000800be000a01be0062060700ea
:102480000006be007fb1970068015100f2b79f00bf
:102490004240a9000c003400870607000002be007d
:1024a0000203be000800be000a01be00fe060700cf
:1024b0006022b80046782d007719240084060700b2
:1024c0000004be000205be00e80047008e002000a8
:1024d0000802be000a03be00b4b79f00c5b79f0044
:1024e000d6b79f00e7b79f000c01be00010478003b
:1024f0000c003700a400200005002000c0fd2f00c4
:102500000f0040008a0107006fa89700ffa89700fe
:102510000fb197009fb1970005c3b3000564410058
:102520000001be00e00f5100e08f590003003400ad
:102530000e07e900e10f4700eeff3a00880078003f
:102540003fb49700cfb497005fb59700efb5970001
:102550000200370000c3b300806078000e07e90076
:10256000fcff3b00688740007fb397000600e00057
:10257000070034006022b8006033b8000800be00d5
:102580000a01be004e0507000000e000b9ff3c0054
:102590000e0378002fb7970051fb2f008f8040006b
:1025a000010353009f9b970067804300909f9f000b
:1025b000020037000603e9000000e900010178008d
:1025c0008200780003c3b300b1cf1100f9ff3200dd
:1025d000909f9f008e11900061c6b3000ff297008c
:1025e000814f52000300320061c4b300814f52009a
:1025f00002003a000000e8000a0037001000200046
:1026000051c6b3008ff2970081cf5200050032000f
:102610000540780050c4b2000080fb000000e900d3
:102620004f00de0083014000868f5100010034001e
:10263000860178000300e0001d00350000c3b300f0
:10264000868f510006003d0062c27900694040005b
:1026500041c3b300814f520001003c00694050006b
:102660008300e90081004100010037008401780007
:102670000302e90001037800a142780080cf5200f4
:10268000faff320091c3b300814f500001003a00bd
:10269000054be8000400e00005003d000201e900f0
:1026a0008301e8001f9b97000603e800969f9f00a8
:1026b0008ff397008700fb001f9a97000e007800a9
:1026c000060007004f0778004f06be004f05be000a
:1026d0004f04be002f04b10000000600f087470041
:1026e000889fbe008a9fbe008c9fbe008e1f780010
:1026f00000047800814478000205be0004067800da
:102700000b00e00002003c001b0020004aa120005a
:1027100060c6b30080cf54000e00320060c4b30026
:1027200080cf54000b00320070c6b30080cf54003d
:102730000300320070c4b30080cf540081003a001f
:10274000e40f46007f00350008109000800f56000f
:102750007c003d000c06e80060c6b30080cf54004a
:102760001000320060c4b30080cf54000d0032006e
:10277000381090000038a30004003a0008109000c0
:10278000808f550001003d000b1498000810900048
:102790000c0050000014980002003b000000eb0009
:1027a0000014980048089000f80090000c00e00029
:1027b00026003c0002c3b300827078000000e800ed
:1027c000400c9800881090000100e00003003c00dd
:1027d000b81090000138a30005003200f800900006
:1027e000e2c2b300827078000000e800400c98005c
:1027f000081090008c00ea00810f500001003d009d
:102800000006ea008c00ea00510c98000006460021
:102810000c1498008b0f5600010034000b06780052
:102820006c0c9800f8009000480890000080400070
:102830000c0178008a007800dc0007000810900086
:102840000c0650007c0c9800900037008c8f5500cf
:1028500018003d00008040000b0178008a007800dd
:10286000d20007004808900000804500400c980006
:102870008b0556005b0c9800881090000100e0006a
:1028800003003c00b81090000138a300060032009d
:10289000f8009000e2c2b3008270780068089000ef
:1028a0000000e800600c980008109000700c980080
:1028b00076003700008040000c0178008a00780024
:1028c000ba0007004808900000004600400c98003d
:1028d0008c855500881090000100e00003003c004a
:1028e000b81090000138a30005003200f8009000f5
:1028f000e2c2b300827078000000e800400c98004b
:1029000008109000808f5500010034008005780089
:10291000f800900048089000008040008c004500be
:102920000b017800a1000700480890000b00400050
:10293000400c9800081090008b0550005b0c98002c
:102940005200370048089000f80090009a70780014
:102950000000e800400c9800881090000100e000a2
:1029600003003c00b81090000138a30005003200bd
:10297000f8009000e2c2b300827078000000e80026
:10298000400c9800081090000000e0001000340097
:102990008b05e900808f5500010034008005780028
:1029a000f800900048089000008040008a00e8008d
:1029b0000b0178007d000700480890000b004000e4
:1029c000400c9800081090008b0550005b0c98009c
:1029d000f8009000480890000080400009587800f6
:1029e0000007e8000c00e00004003500b1c2b300ad
:1029f000014878008e04780004003700d1c2b3008b
:102a0000014878008e0478000c06ea007d855700a6
:102a10008006eb0009003700a20020008c0078003f
:102a200072805700310007007fb097008fb8970081
:102a3000016d7800000678008d06e8000c00e000cb
:102a4000f5ff3c000d00e00009003a008e0478001c
:102a500000c3b300805c7800050037008d06e900f4
:102a6000fc80570061c07e0002c3b300825c40005e
:102a70000d00e000f9ff3c00f800900048089000cd
:102a80000080400080845400690c98003810900049
:102a900074006000f00f50000e003a00c80890006b
:102aa0002808900000804000d808900001004000f5
:102ab000e808900001004000f80890000100400084
:102ac000a8109000810f500002003d0000805000cf
:102ad000300c98004f0778004f06be004f05be002f
:102ae0004f04be000f01b100000006008002780014
:102af00001037800110009000203d800800178006a
:102b0000830a78000299b9000201530092029800ea
:102b10000500780000000600705080000000e00012
:102b20000100320000000100c0a0200000000600eb
:102b3000881f78008a9fbe008c9fbe00000478002a
:102b40000205be000406be000401be000a00be006d
:102b50003a040700008cbe000c01be0054050700bb
:102b60000005550081855d002a0498003b0498000b
:102b7000080078004f06be004f05be004f047800e5
:102b80000000060003003700b0cf1000050032003f
:102b90000201e900800178000200e000faff3a003b
:102ba00000000500030078000000060080017800a6
:102bb00002003700b15978000201e9000200e0008c
:102bc000fcff3a0000000600020037000304e000aa
:102bd000060032000001780002007800b041780061
:102be00081cf5100f9ff3a00010037000001eb00ee
:102bf000020078000000060080007800d101780013
:102c00000400280004826100f307b2008308780002
:102c1000120020000e003a00900178000300e0004e
:102c20001b003200830878000008eb0012ff2f0021
:102c3000070037008381410090027800cf2ade0030
:102c40008588710090017800038841000201e90045
:102c500091017800f5072000858f5100f5ff3600bf
:102c600005003700cf19dd009002d1000588710002
:102c70009108d1000201e80091017800f50f2000d1
:102c8000858f5100f7ff3e00f0072000808861002b
:102c9000910872000200780000000600889fbe00c4
:102ca00000047800e68440001900d0004500de00f2
:102cb000f27f2000820f500010003a00000ceb0061
:102cc000990478006f816400200020001b003a0006
:102cd000210190000200e00018003a00110190006c
:102ce0000200e00015003a00100020001100e00092
:102cf0001200320020002000100037000000e00029
:102d000004003a0001007800910107000000e00093
:102d100008003c00f20028001901610001fe2300b8
:102d2000810c710021c02f00010c40000080eb00dd
:102d300002003700000ceb000000eb004f04be0067
:102d4000000006000400fa00889fbe008a9fbe00b3
:102d50008c1f78000004780001067800a814900009
:102d60002808900080845400380890008084540023
:102d700048089000808454005808900080845400d3
:102d80006808900080845400780890008084540083
:102d90000002220090bf9f0000032300a0bf9f00fd
:102da000381090000028a30015003a000900e00048
:102db00013003400090578008a057800e20f5500f9
:102dc000010036002b002000c80190000b017800a4
:102dd000ee80570068009000030001006004980036
:102de0000000e000aa003200181090000b00400024
:102df000101498000b0555004240a900eeff3c005e
:102e0000280990000200e0000c003400c801900086
:102e10008c007800680090000300010060049800b6
:102e20008080eb000000e0009a00320098109000d3
:102e3000280890000080400010149800380d900081
:102e40000a00e000110034008a057800e20f550006
:102e5000010036002b002000c80190000b01780013
:102e6000ec805700680090000300010060049800a7
:102e70000000e00086003200181090000b004000b7
:102e8000101498000b055500edff370008699000fd
:102e9000c808900050c6b300804f510008003a00a7
:102ea0000100e0001500340058029000080990006d
:102eb00098099000680090000400010007003700a6
:102ec0000100e0000d003400c8019000010178000d
:102ed000f800900068009000030001006004980072
:102ee0008080eb000000e0006a0032009810900043
:102ef000480890000080400010149800580d900081
:102f00000a00e000110034008a057800e20f550045
:102f1000010036002b002000c80190000b01780052
:102f2000ec805700680090000300010060049800e6
:102f30000000e00056003200181090000b00400026
:102f4000101498000b055500edff3700086990003c
:102f50006808900051c6b300814f51000d003a003f
:102f60000000e0001c00340078019000c8089000c8
:102f7000010141006111b800828fd2008381d2002b
:102f80005802900080007800680090000400010062
:102f9000090037000000e0000f00340078019000c5
:102fa000c808900081004100c8019000000178002d
:102fb0006800900003000100600498008080eb002e
:102fc0000000e00033003200981090006808900084
:102fd0000080400010149800780d90000a00e00076
:102fe000110034008a057800e20f55000100360018
:102ff0002b002000c80190000b017800ec805700e6
:103000006800900003000100600498000000e000e8
:103010001f003200181090000b00400010149800a0
:103020000b055500edff3700381090008000eb00d5
:103030000028a300170032000900e000150034004a
:1030400009057800e28f5400010036002a002000b4
:10305000c80190000a017800ee80570068009000d7
:1030600003000100600498000000e0000800320046
:10307000181090000a004000101498008a84540030
:103080004240a900eeff3c008000eb000100370049
:103090008080eb00010078004f0678004f05be00ed
:1030a0004f04be000080fa0000000600010878000e
:1030b00000000600e6874700889fbe008a9fbe008a
:1030c0008c9fbe008e1f780082bf9f000404780092
:1030d000029ab900f4b79f000400e00059003200e2
:1030e0000fb997000200e000570032000006be0052
:1030f00004077800c800900068009000808f50009e
:103100000400390008007800dd0007000000e0003e
:103110003b00350000402000180060000a0032002b
:103120008e017800a20020000c00be0044020700bf
:103130000005be0000807500070032008c045500b9
:103140008904e800050037008e0478000a0020009a
:103150000b002000010037008e0478004801900029
:103160006800900002005000890f500003003100f9
:10317000800478000a0020000b0020006111b800d4
:10318000828fd2008381d200090278000c00be0039
:103190000e02070009075700480090000900400090
:1031a000400498000a857500040032000800780089
:1031b0002c0007000000e00011003a000e00e000c3
:1031c0000f0032006148b800808fd2008180d200a9
:1031d0000000780000f0a1008c01d0000001d000b8
:1031e000028641004220a80081864e004200a900cc
:1031f0004220ae004200a8000c86d300bdff37007d
:1032000000802000180060000200320008007800f2
:103210001400070000c02000180060000200320007
:10322000c8019000630498007fb097000e0750001b
:103230000fb99700110009000287d80080017800bb
:10324000010037008001eb00030078004f07780091
:103250004f06be004f05be004f04be006f00b10018
:1032600000000600889fbe00000478000800e0000f
:103270000f003a008004eb00090478008800d000b9
:1032800040922000610078000000e000040032005d
:10329000f4ff07000000e00001003d008084eb0027
:1032a0000804e800e80f5400f4ff3a002500370056
:1032b00000002200180060008004eb0021003200b2
:1032c000a80490000f003700090151003840900019
:1032d0000000fb0089007800890607000000e0007c
:1032e00007003c002800900040049800600498000b
:1032f000500c98001890a0008084eb00110037005b
:103300008084440048019000828f5400eeff390011
:1033100028009000400498009800780002c0200027
:103320000281600001003a003800900001e8a3002b
:10333000020032006004980001003700500c980031
:103340008004eb00090078004f04be000000060076
:10335000e6004000110178000500280085026100a8
:103360006f01610082087800020032001200200024
:1033700011003700a0019000120020000300e000bf
:103380000d003a00900190000300e0000a003a00ae
:103390001000e00008003a003600370064034000e7
:1033a0009608780080017800530b78009009780027
:1033b0000408780070015100110278000400e00058
:1033c000f6ff320013003700640240001403780057
:1033d0004f33de0083814100830873008001780051
:1033e000d3037800cf3bde001403780006034300cc
:1033f000068a73001302780004024200100378006a
:103400004f33de0086097200900178000388410086
:103410000201e90091017800ef8f5100eaff3600c8
:103420001000370080017800530378004f33dd002f
:103430001002d10004087300640240009403780075
:10344000cf3bdd001303d1008689730011037800a0
:103450004f33dd009401d100030a73009108d100bd
:103460000201e80091017800ff8f5100edff3e005e
:10347000ef88610091887200020078000000060069
:10348000889fbe008a1f780000047800c800900062
:10349000680190000000eb00828f50003c00390072
:1034a000180078002200290002016000e20f51009c
:1034b00007003200012020000000e000010035007c
:1034c00001202400008c70000080eb0030003700e9
:1034d0000200260002006000820f500009003a003e
:1034e00038009000808f50000600390008007800f6
:1034f0005cff0700800078000080eb000100e00026
:1035000023003a001805780000c020000000650084
:1035100018003a00a8049000600220000800400053
:10352000808f540013003a0000202000ef000700b5
:10353000200498000000e00005003a0029049800eb
:10354000490498008904e80039049800080037000d
:103550000a60a0000a0c78004004980001202000b6
:103560008080400031049800400c9800500c980076
:103570000c000700280090005004980038009000cc
:103580006004980000002600180c70000000eb009a
:103590004f0578004f04be000000060040b7210030
:1035a00061003700881f780068a120001804e0003f
:1035b00003003a00f9ff070020c0b300004c780078
:1035c0004f04780000000600889fbe0000047800c9
:1035d0000800780023ff0700800478000004200022
:1035e0001800600002003200280090005a00070016
:1035f0000000eb0020049800384090000004e00038
:10360000050035000000fb0002f407000000e000a8
:10361000010032008084eb00181090000000e000f0
:103620000800320004f407000000e000010032004e
:103630008084eb0018109000470007000000eb00aa
:1036400010149800000820001800600015003200d7
:103650000001eb006000b800439220000202d0009d
:1036600063027a00880f520005003a000000400013
:1036700081804800008041000008eb000600370010
:1036800061004000e08048000201e800e80f5000bf
:10369000e08f5800f0ff3a00080078002e00070085
:1036a0000e003700000c780000c0eb00304498009a
:1036b00060022000080040002004980040049800a8
:1036c00050049800400c980060049800500c98003a
:1036d0007004980076004400000c980009007800ff
:1036e0004f04be0000000600881f78000004eb00b5
:1036f0006140b800e2ff2f00f3ff2f006c020700cb
:1037000022932000620078000000e00001003200f7
:10371000adff07000804e800e80f5400f4ff3a008a
:103720004f04780000000600010020000100e000c6
:1037300008003200010080000100e00005003200b6
:103740008100e900010088008100d00002008000b3
:1037500000b17800000006000000e0002f003200f9
:10376000c0017800e38f51002c0036000308a3004d
:103770002a003a00915080000100e000020032006f
:10378000810f500004003100110098009050880013
:103790001600370082007800110190000200e0005e
:1037a00002003200800f5100faff39001102780048
:1037b00084824000850f500018003900808f52002d
:1037c00003003a0083084200010078000700370038
:1037d0000200e0000300320083014000830f51002b
:1037e0000e003900120098009000980090009000a0
:1037f0000100e0000900320010014000828f5000fb
:1038000006003a0002a120000009eb001001780038
:10381000110841009100900011009800000006007e
:10382000889fbe0000047800815080000100e00005
:1038300002003200010078000d0037009150800036
:1038400020a1200004003700910f5400250036000d
:103850000180e800910090000100e000faff3a00ca
:1038600010003700920f54001e0036000280e8005e
:10387000100178000200e000faff3a001101780020
:103880009150800020a1200004003700910f5400c7
:10389000140036000180e80091009000828f5000f3
:1038a000faff3a00c9508000888f540001003100af
:1038b0008804780009007800360007000000e00066
:1038c00004003a00888f5400050032008904d100ba
:1038d000f5ff3700091878009fff0700d2ff370077
:1038e0000000eb004f04be0000000600881f7800b7
:1038f000630440000800a1008000eb00800f54002a
:1039000021003600e30f540001003e004800200073
:1039100008007800c2ff07008000eb000000e00014
:103920001900320090007800910178006481510004
:10393000880f510003003100110190000208780047
:1039400007003700088140000208780091019000cc
:1039500013019800100178001109140088087800fc
:10396000100178000000eb000200e00004003200cb
:10397000920190000300e000010032000280e800a4
:10398000805088008180e800010078004f047800b2
:1039900000000600800078000000eb000100e0005d
:1039a00005003400010078002cf30700e10f40000f
:1039b00001003a000000eb000000060000c0da0041
:1039c0000000060000c0da00000006003400f80025
:1039d0000203be00820270008502720002f0a6009f
:1039e00000f0a6008100e800a10188001500b200e7
:1039f00008003200105978000402e9000d0032007e
:103a000061004000fbff39003420ec00000028007a
:103a1000f8ff3700101978000482e9000500320031
:103a200062004000fbff39003420ec000000280059
:103a3000f8ff37003400f9000601be000000060060
:103a40000300e00007003200a5018000a10188000a
:103a500010427800a50188000402fb00820f52008a
:103a6000110032008301e900a5018000a101880056
:103a700010427800a50188000404e000080032002c
:103a8000000278001000b00000026a004260af003f
:103a900000f0a0000482d2000180b000e8ff3700ef
:103aa0000000200001002000000006008f1fd10050
:103ab000030207008f87e9000000e0000000060015
:103ac000809feb00fe0107008f87e9000000e00007
:103ad000000006002800fa00889fbe008a9fbe00f2
:103ae0008c9fbe0003866b008f0007006400e1001e
:103af000440032006408e1004a0032006100e10045
:103b0000460032006108e10049003200ec0647003f
:103b10006000b8003d02be003d03be00f4865700c1
:103b20006011b8003d04be003d05be007d032000cd
:103b30000b0037000000a0008d06e90013003200e2
:103b40000402420085824a0006034b0087834b0033
:103b50000000400081804800020149008381490043
:103b60000802520089825a000a035b008b835b00c3
:103b7000f0ff3b000802420089824a000a034b0022
:103b80008b834b008d06e900edff3a0084827200c2
:103b900086827200f707b20087827200010032004d
:103ba000150020001e0490003e0b900006035400f8
:103bb000e63fb0000368a300070032000000a70042
:103bc0000500a0008301d1000281d3008180d300d1
:103bd0000080d3000603e8008301d1000281d300f6
:103be0008180d3000080d3000002eb000482d20069
:103bf0002100070003f0a1000cf0a70003f0a000d3
:103c00005d003700640247006408e100570032009d
:103c10003400be003401be00f6ff37006108e10049
:103c2000520032006011b8006000b800f1ff3700a8
:103c300003ff270002002000fbff3700839f68007e
:103c40000100e00002003d0060001000e08018006c
:103c50000300e00002003d0060011100e081190056
:103c6000e8f307004f00e00002003b006000100096
:103c7000e080180000000600180020005700200017
:103c8000080453000d003d000600200097fc2f00a3
:103c90000740e1001e00340084827200610260006f
:103ca0008301d1000281d3008180d3000080d30042
:103cb0000804e800f8ff3a004700200061046000b3
:103cc00005047400040464000d003200610040002b
:103cd000e080480060014900e081490003b8a50088
:103ce000070032000603e8006538e10004003a00ee
:103cf0008301d1000281d3008180d3000080d300f2
:103d0000f87f20000830e100030035000803780048
:103d10006000b8006011b8004433dd00f300b20069
:103d20008301730000000600680447000294be008f
:103d30000094be00fc0447008694be008494be003c
:103d400009007800a701070008007800a501070016
:103d500099007800814f70000b003b000800be0006
:103d6000800107004f00b10003003700f3ff270078
:103d7000f2ff2f006110b9004f06be004f05be00d4
:103d80004f04be000080fa000000060081037800a6
:103d90003bf307000001be006000b8000478a300f8
:103da00013003a006220e10015003e000d003900ca
:103db0008301d1000281d3008180d3008301d1002f
:103dc0000281d3008180d3008301d1000281d3001e
:103dd0008180d3000538b000c42add00f300b200b2
:103de0008381720007f0a70003f0a0000000060026
:103df000f3ff2700f2ff2f006110b900fbff37002f
:103e000003ff2700f7ff37001400fa00889fbe0069
:103e10008a9fbe008c9fbe000004be000205be004b
:103e2000680047000a90be000890be006d010700c0
:103e30000070a7000bf0a100304320009e0290000c
:103e400080825200b0fe2f000028e10011003d00ea
:103e5000b0fc2f000028e100150034001e0990007e
:103e60008e0890007e0090000501b0000201d10094
:103e70008180d3000080d3008502e800fbff3a0078
:103e80000b00e000bcff3b0060001000e080180069
:103e9000b9ff3700f0ff2f00f1ff27000b00e00013
:103ea000b5ff3b000100280000002000b2ff3700f2
:103eb0006000b800b0ff37004f89de008201780053
:103ec0006f0137004f89de00820178007c013700e6
:103ed0002800fa00889fbe008a9fbe008c9fbe000b
:103ee00003866b0090ff07000028a30064003a00df
:103ef0000128a30067003a000008a30062003a000e
:103f00000108a30065003a001e009000be08900062
:103f100081064000ed3fb100f4805700ee019000b3
:103f2000111ab8008e099000311bb8009e0990004c
:103f3000311cb800511db800f48557004600070039
:103f4000fe0190003a0007008b85e8003e00070064
:103f50008e09900040000700ee0190003400070039
:103f60008b85e800380007008e09900040000700ac
:103f70009e0990001b18b800890440000a8548007b
:103f8000fe019000340007008b85e8003800070030
:103f9000ee019000300007008e0990001b18b80059
:103fa000890440000a8548000a98a30008003a00e6
:103fb0000402420085824a0006034b0087834b00bf
:103fc00008044c0089844c000a054d008d06e90068
:103fd00084827200850273004c3add008502720013
:103fe0000100320015002000443ade001400b20047
:103ff0004538de00cb45dd000b007000c540de001b
:10400000cb4ddd008b8070004549de00cb55dd00d7
:104010000b017100c551de000d03780016ff07008b
:1040200003f0a1000cf0a70003f0a00052ff37003e
:104030001b18b8008502400006834800e0834b004f
:1040400060044c00070037001b18b800060340004e
:1040500087834800faff37001b18b8008703400029
:1040600008844800e0844c0060054d000000060014
:104070001b18b8000804400089844800faff370084
:104080000108a30039ff3a005800be005801be00e5
:10409000e3ff37000008a30034ff3a00090478006a
:1040a000f9ff37000000000007f0a200060037000b
:1040b000020ab900001bb9000200b80081004200ea
:1040c00081004300000006002800fa00889fbe001f
:1040d0008a9fbe008c9fbe00070678008786690015
:1040e0000c003b00030478008704780008f0a1006e
:1040f00009f0a100840f5000858f5800860f5900e9
:10410000890f5c00030033000cf0a20001003a00ac
:104110000cf0a10004ff07006400e1005f00320022
:10412000780147006408e100610032006c0147003b
:10413000748557003200be001201be003a04be0072
:104140001a05be001e039000be0a900085035300ae
:1041500006003d000004fd008104fd000205fd0095
:104160008305fd008703ea00050378000df8a3002e
:104170000400320060041400e0841c0060051d008f
:10418000e0851d006022b8007d0320000d38e100ad
:104190008006eb000b0039004433dd00f300b20071
:1041a0008301730039003700848272000d027800a9
:1041b000e10664008b85d1000a85d3008984d30091
:1041c0000884d3008703e900f7ff3b0008004000a4
:1041d000898048000a0149008b81490004003b00a6
:1041e00060001000e080180060011900e0811900f3
:1041f0000358a300090032008d827200848272008d
:10420000610260008301d1000281d3008180d3006c
:104210000080d3000603e8001b0037000348a3001a
:1042200017003a000600e000170034000603e9001a
:104230000d00a300000048008180480002014900f1
:10424000838149000348a3000f003a000600e00004
:10425000090034000603e9000000400081804800a6
:10426000020149008381490001003a000003eb008c
:104270000348a300f5ff32006022b80002003700b7
:1042800084827200618266007bfe070003f0a10059
:104290000cf0a70003f0a000b7fe37006401470050
:1042a0006408e10002003a000df8a300affe3a00f6
:1042b0003200be001201be00affe37000000000059
:1042c000889fbe008a9fbe008c9fbe000404be0073
:1042d0000605be00809fbe00829fbe002f00070023
:1042e000040678000800be000a01be002b0007008b
:1042f000840678004f03be004f02be008d4f76004b
:104300007fb0970013003300f0ff2f008b8f6b00fe
:1043100006003b000d0666000c00a7000a003700ef
:1043200007f0a600100020000a003700880f520096
:10433000898f5a008a0f5b008b8f5b000300390066
:104340001000200001003e000000200007f0a70040
:104350000000ea004f06be004f05be004f04be003d
:1043600000000600e48240001078a300070032003d
:10437000640240001178a3003400be001401be00a6
:10438000040032000330a700000006003500be0024
:104390001501be000330a0000000060005ff270045
:1043a00005826100070032000428e10001003200ac
:1043b000240005000600070001003a004400050043
:1043c0000408050002000700f9ff3a001400050088
:1043d0006f826100810270008502710085027200a7
:1043e00000000600800078005002be005003be00ae
:1043f0004439de00f700b200f37f200003016100c2
:10440000090032000218e10016003a00850172002e
:1044100083017300838173000008200015003a00b7
:1044200040002000130037008501720083017300f3
:104430008381730005003a0004a8be0006a8be00f0
:10444000100020000b0037000201e90004024200c6
:1044500085824a0006034b0087834b000748a30070
:10446000f9ff32000740a00004a8be0006a8be0065
:1044700020002000800098009200980000000600b4
:10448000881f7800030478000300e00007003d0067
:1044900060001000e080180060011900e081190040
:1044a00002003b0001f02d0003003700140007005c
:1044b00008f0a70003f0a0004f04780000000600f9
:1044c000881f7800030478000300e00007003d0027
:1044d00060001000e080180060011900e081190000
:1044e00002003b0001f02d0003003700f0f107004f
:1044f00008f0a70001f0a0004f04780000000600bb
:10450000889fbe0000827000040271000482710066
:104510002400320036432000c50020008383cf00f2
:104520000a0039000541b1008283cf00070039003d
:104530000541b1008183cf00040039000541b1007d
:104540008083cf00010039000541b10085c35300cd
:104550006022b800120032000a003b008482720020
:10456000610260008301d1000281d3008180d30009
:104570000080d3000603e8008743e800f7ff3a0015
:104580000700370000004000818048000201490018
:10459000838149000603e9008743e900f9ff3a00f7
:0c45a000b5fd07004f04be00000006003f
:020000040000fa
:1045ac00252e0000326600000a0d000000000000fd
:020000040000fa
:1045bc000200fa00000f78001e0178006000b800bd
:1045cc0060099800710998001e0178006000b8001d
:1045dc0000119800111198001e0178006000b800bd
:1045ec0040119800511198001e0178006000b8002d
:1045fc0060119800711198001e0178006000b800dd
:10460c0000199800111998000080fa0000000600ab
:10461c000e00fa00889fbe008a9fbe0020079800fb
:10462c0032079800430798005407980065079800d4
:10463c005e019000ee0190003e009000ce009000d4
:10464c0025f00700008fbe002e0090001000be0069
:10465c001e01be0034f107002e01900020119800bd
:10466c00311198002e0090000014900090149000ce
:10467c002e009000b000900020009000020020005e
:10468c0003f0230028f107000002be002e0090006a
:10469c00d0089000400890000001be000400be004d
:1046ac0021f107000005be002e009000d0109000f4
:1046bc00401090001e01be0008f007000001be0073
:1046cc000a00be0018f107000001be000800be0081
:1046dc0002f007002e0190000011980011119800b3
:1046ec002e009000d0009000400090000001be0011
:1046fc00faef07000004be002e009000f0109000ae
:10470c00601090000001be005e009000ee00900072
:10471c00f1ef07000001be000800be0002f1070027
:10472c000004be002e009000f0009000600090008d
:10473c000001be00e9ef07000002be002e00900051
:10474c00d0089000400890000001be000400be009c
:10475c00e1ef07000002be002e009000f008900070
:10476c00600890000001be000400be00eef00700df
:10477c000001be000800be00d8ef07000004be0018
:10478c0009f0a2002e009000f00090006000900054
:10479c000001be00d1ef07000002be002e00900009
:1047ac00d0089000400890000001be000400be003c
:1047bc00caef07000001be000800be0024f007008d
:1047cc002e01900060099800710998002e0090004d
:1047dc0020129000b01290002e00900090109000cb
:1047ec00001090000001be000400be00bbef0700eb
:1047fc000002be002e009000f008900060089000af
:10480c000001be000400be00b4ef07002e019000b2
:10481c0000199800111998002e009000001a9000b1
:10482c00901a90002e0090009008900000089000c4
:10483c0018c0b3000001be000400be0048f0070021
:10484c000000e00001003c000044eb000804e00024
:10485c00070032002e009000900890000008900095
:10486c002e01900000199800111998001c003700b7
:10487c002e009000001a9000901a90002e009000cc
:10488c00b00890002008900018c0b3000001be00d2
:10489c000400be0030f007000000e000010035000d
:1048ac000044eb000804e000070032002e009000ea
:1048bc00b0089000200890002e019000001998007c
:1048cc0011199800060037002e00900090189000e7
:1048dc00001890002e0190000019980011199800f2
:1048ec002e0090001e01be0042109800531098003c
:1048fc002e0090005e019000ee0190006210980076
:10490c00731098002e0090009018900000189000e2
:10491c004f05be004f04be000080fa0000000600e8
:020000040000fa
:10492c007808000034000000020000004f90d8000e
:10493c003c2b3000243f0000000000000000000071
:10494c0000cdcc0014410000000000000ad7230069
:10495c003c0000000000000000000000000000000f
:10496c00000000000000000000000000000000003b
:10497c0000000000000800007800000000000000ab
:10498c00ba09000020000000020000000a0000002c
:10499c00006400000000e800030000001027000085
:1049ac0000a0860001004000420f00008096980095
:1049bc000000e100f50500008c0900002e0000004d
:1049cc0002000000000102000304050006070800b5
:1049dc00090a0b000c0d0e000f0a0b000c0d0e003b
:1049ec000f3031003233340035363700383961003e
:1049fc006263640065664100424344004546000022
:104a0c0000000000f4090000180000000200000083
:104a1c000000200041000000c8420000401c46007d
:104a2c0020bcbe004cca1b000e5aae00c59d7400c3
:104a3c00da0900001a00000002000000686a6c002d
:104a4c00747a4c0000000100000200000400080011
:104a5c0000100000000020002b2d2300300000006f
:104a6c003409000058000000020000006e616e0066
:104a7c00004e41004e0069006e660000494e460033
:104a8c0000000000000000000024400000000000b6
:104a9c000000000059400000000000000088c30026
:104aac004000000000008400d79741000080e00027
:104abc003779c300414317006e05b500b5b89300b4
:104acc0046f5f9003fe903004f384d00321d300028
:104adc00f9487700825a3c00bf737f00dd4f150008
:104aec0075000000140a0000020000000200000023
:104afc00300000000c0a0000040000000000000060
:104b0c00ac0800008800000002000000010000005a
:104b1c0000d20800d308d20008d20800d208d20074
:104b2c0008c20800000000000000000000000000a7
:104b3c000000000000000000000000000000000069
:104b4c00000208000101fa0008fb0800fa08fa004c
:104b5c0008fa0800fa08ea0008000000000000004b
:104b6c000000000000000000000000000000000039
:104b7c0000000000000002000802020022092300cd
:104b8c000922090022092200092209001209000049
:104b9c000000000000000000000000000000000009
:104bac00000000000000000000000000ac08d40071
:104bbc0008fc0800000000000000000000000000dd
:104bcc0000000000160a00000200000000000000b7
:104bdc00180a00000200000002000000040000009f
:104bec00100a000004000000000000001a0a000077
:0c4bfc00020000000000000000000000ab
:020000040000fa
:104c08000400fa00008fbe00f01680000040a000eb
:104c1800f0168800f01680000050a100f0168800f9
:104c2800b110800090ff2f0000806000b010880055
:104c38001602a900c1108000f0f32f000080600068
:104c4800c01088008700a9008f00a8000105800017
:104c580080ff2f00008060005000b300000588002e
:104c68001e01be0000122a0071002000e3ef0700b9
:104c7800000078000000e900f010880017e2a800a2
:104c88001942a8000080fa00000006000200fa009d
:104c9800004f780000000000c110800000202000b4
:104ca800008060000000e000fbff3a001e00fb00ef
:104cb800d01088000080fa00000006000400fa0006
:104cc800100798009e009000010f7800040037003c
:104cd8001e007800104078001e0fe800ebff070068
:104ce8001e007800104078000004e000f8ff3a0049
:104cf8000080fa00000006000800fa00100798007b
:104d080021079800320798000000eb00000f780098
:104d1800070037002e00900010407800ae00900089
:104d28008100e80021079800d8ff07001e0fe8005f
:104d38009e0078003e009000808f5000f5ff3900fb
:104d48003e0090000080fa00000006000000fa0013
:104d5800e0ff21004015880011158000f0ff2100b8
:104d680000806000101588002115800000fc2f00cd
:104d780000806000f000b30020158800a4e2a900bc
:104d880021158000f00f2e008080600000e02000d8
:104d9800010070002015880001158000f0f12f0037
:104da800008060000015880001158000f0cf2f00fa
:104db8000080600000158800a1e2a8000080fa00c9
:104dc800000006000200fa00004f7800a022a800a8
:104dd80000502300c10020005c000700a022a900a9
:104de8003115800000ff2f0000806000301588001a
:104df8000000000000158000610060000000e00075
:104e0800fcff3200001480000080fa000000060059
:104e18000000fa0005e1a9000421a900210880008a
:104e2800f0fc2f00008060000040a00020088800ef
:104e3800f0702200100888000021ef008460a900ab
:104e48008c60a800a1048000f0ff280000806000aa
:104e580000e0a000a004880005e1a8000080fa0096
:104e6800000006000000fa0011e1a9001021a800c6
:104e7800cda2a80081088000f0fc2f00008060000f
:104e8800800888000080eb00600888000621ef0099
:104e980011e1a8000080fa00000006000000fa00f6
:104ea800d202a900f0312000700888000a21ef0022
:104eb8008221ef008021ef00210c800080ff2f006d
:104ec800008060006000b300200c88008461a800a6
:104ed80091088000f0fc2f00008060000050a000c6
:104ee800900888001221a90013e1a8000080fa00a8
:104ef800000006000400fa00000f7800110798006f
:104f080000582200010020003dff0700d5ff0700e0
:104f1800bfff0700e1ff07000400070000000000d2
:104f280080872000a3fd0700ffff37000000fa007c
:104f3800d262a900c722a900c742a900cb22a900b2
:0c4f4800cb42a8000080fa000000060028
:020000040000fa
:104f5400f03fb1000180b10006003500ee03090006
:104f640000000000403fb1000180b100fbff3d00a4
:104f74001000b000203fb00002003500008009009e
:084f840000000000000006001f
:020000040000fa
:0200000401f009
:04000000e6bf000057
:020000040000fa
:0200000401f009
:04000400ff7f00007a
:020000040000fa
:0200000401f009
:04000800ffff0000f6
:020000040000fa
:0200000401f009
:04001400ffffff00eb
:020000040000fa
:0200000401f009
:04001800ffff0000e6
:00000001FF
