:020000040000fa
:080000000002040000000000f2
:020000040000fa
:0400080006030000eb
:020000040000fa
:04000c0006030000e7
:020000040000fa
:0400100006030000e3
:020000040000fa
:0400140006030000df
:020000040000fa
:0400180006030000db
:020000040000fa
:04001c0006030000d7
:020000040000fa
:0400200006030000d3
:020000040000fa
:0400240006030000cf
:020000040000fa
:0400280006030000cb
:020000040000fa
:04002c0006030000c7
:020000040000fa
:0400300006030000c3
:020000040000fa
:0400340006030000bf
:020000040000fa
:0400380006030000bb
:020000040000fa
:04003c0006030000b7
:020000040000fa
:0400400006030000b3
:020000040000fa
:0400440006030000af
:020000040000fa
:0400480006030000ab
:020000040000fa
:04004c0006030000a7
:020000040000fa
:0400500006030000a3
:020000040000fa
:04005400d8020000ce
:020000040000fa
:04005800060300009b
:020000040000fa
:04005c000603000097
:020000040000fa
:040060000603000093
:020000040000fa
:04006400060300008f
:020000040000fa
:04006800060300008b
:020000040000fa
:04006c000603000087
:020000040000fa
:040070000603000083
:020000040000fa
:04007400060300007f
:020000040000fa
:04007800060300007b
:020000040000fa
:04007c000603000077
:020000040000fa
:040080000603000073
:020000040000fa
:04008400060300006f
:020000040000fa
:04008800060300006b
:020000040000fa
:04008c000603000067
:020000040000fa
:040090000603000063
:020000040000fa
:04009400060300005f
:020000040000fa
:04009800060300005b
:020000040000fa
:04009c000603000057
:020000040000fa
:0400a0000603000053
:020000040000fa
:0400a400060300004f
:020000040000fa
:0400a800060300004b
:020000040000fa
:0400ac000603000047
:020000040000fa
:0400b0000603000043
:020000040000fa
:0400b400060300003f
:020000040000fa
:0400b800060300003b
:020000040000fa
:0400bc000603000037
:020000040000fa
:0400c0000603000033
:020000040000fa
:0400c400060300002f
:020000040000fa
:0400c800060300002b
:020000040000fa
:0400cc000603000027
:020000040000fa
:0400d0000603000023
:020000040000fa
:0400d400060300001f
:020000040000fa
:0400d800060300001b
:020000040000fa
:0400dc000603000017
:020000040000fa
:0400e0000603000013
:020000040000fa
:0400e400060300000f
:020000040000fa
:0400e800060300000b
:020000040000fa
:0400ec000603000007
:020000040000fa
:0400f0000603000003
:020000040000fa
:0400f40006030000ff
:020000040000fa
:0400f80006030000fb
:020000040000fa
:0400fc0006030000f7
:020000040000fa
:0401000006030000f2
:020000040000fa
:0401040006030000ee
:020000040000fa
:0401080006030000ea
:020000040000fa
:04010c0006030000e6
:020000040000fa
:0401100006030000e2
:020000040000fa
:0401140006030000de
:020000040000fa
:0401180006030000da
:020000040000fa
:04011c0006030000d6
:020000040000fa
:0401200006030000d2
:020000040000fa
:0401240006030000ce
:020000040000fa
:0401280006030000ca
:020000040000fa
:04012c0006030000c6
:020000040000fa
:0401300006030000c2
:020000040000fa
:0401340006030000be
:020000040000fa
:0401380006030000ba
:020000040000fa
:04013c0006030000b6
:020000040000fa
:0401400006030000b2
:020000040000fa
:0401440006030000ae
:020000040000fa
:0401480006030000aa
:020000040000fa
:04014c0006030000a6
:020000040000fa
:0401500006030000a2
:020000040000fa
:0402080006030000e9
:020000040000fa
:04020c0006030000e5
:020000040000fa
:0402100006030000e1
:020000040000fa
:0402140006030000dd
:020000040000fa
:0402180006030000d9
:020000040000fa
:04021c0006030000d5
:020000040000fa
:0402200006030000d1
:020000040000fa
:0402240006030000cd
:020000040000fa
:0402280006030000c9
:020000040000fa
:04022c0006030000c5
:020000040000fa
:0402300006030000c1
:020000040000fa
:0402340006030000bd
:020000040000fa
:0402380006030000b9
:020000040000fa
:04023c0006030000b5
:020000040000fa
:0402400006030000b1
:020000040000fa
:0402440006030000ad
:020000040000fa
:0402480006030000a9
:020000040000fa
:04024c0006030000a5
:020000040000fa
:0402500006030000a1
:020000040000fa
:04025400d8020000cc
:020000040000fa
:040258000603000099
:020000040000fa
:04025c000603000095
:020000040000fa
:040260000603000091
:020000040000fa
:04026400060300008d
:020000040000fa
:040268000603000089
:020000040000fa
:04026c000603000085
:020000040000fa
:040270000603000081
:020000040000fa
:04027400060300007d
:020000040000fa
:040278000603000079
:020000040000fa
:04027c000603000075
:020000040000fa
:040280000603000071
:020000040000fa
:04028400060300006d
:020000040000fa
:040288000603000069
:020000040000fa
:04028c000603000065
:020000040000fa
:040290000603000061
:020000040000fa
:04029400060300005d
:020000040000fa
:040298000603000059
:020000040000fa
:04029c000603000055
:020000040000fa
:0402a0000603000051
:020000040000fa
:0402a400060300004d
:020000040000fa
:0402a8000603000049
:020000040000fa
:0402ac000603000045
:020000040000fa
:0402b0000603000041
:020000040000fa
:0402b400060300003d
:020000040000fa
:0402b8000603000039
:020000040000fa
:0402bc000603000035
:020000040000fa
:0402c0000603000031
:020000040000fa
:0402c400060300002d
:020000040000fa
:0402c8000603000029
:020000040000fa
:0402cc000603000025
:020000040000fa
:0402d0000603000021
:020000040000fa
:0402d400060300001d
:020000040000fa
:0402d8000603000019
:020000040000fa
:0402dc000603000015
:020000040000fa
:0402e0000603000011
:020000040000fa
:0402e400060300000d
:020000040000fa
:0402e8000603000009
:020000040000fa
:0402ec000603000005
:020000040000fa
:0402f0000603000001
:020000040000fa
:0402f40006030000fd
:020000040000fa
:0402f80006030000f9
:020000040000fa
:0402fc0006030000f5
:020000040000fa
:0403000006030000f0
:020000040000fa
:0403040006030000ec
:020000040000fa
:0403080006030000e8
:020000040000fa
:04030c0006030000e4
:020000040000fa
:0403100006030000e0
:020000040000fa
:0403140006030000dc
:020000040000fa
:0403180006030000d8
:020000040000fa
:04031c0006030000d4
:020000040000fa
:0403200006030000d0
:020000040000fa
:0403240006030000cc
:020000040000fa
:0403280006030000c8
:020000040000fa
:04032c0006030000c4
:020000040000fa
:0403300006030000c0
:020000040000fa
:0403340006030000bc
:020000040000fa
:0403380006030000b8
:020000040000fa
:04033c0006030000b4
:020000040000fa
:0403400006030000b0
:020000040000fa
:0403440006030000ac
:020000040000fa
:0403480006030000a8
:020000040000fa
:04034c0006030000a4
:020000040000fa
:0403500006030000a0
:020000040000fa
:10040000af9120000eff20000e01880000000000c8
:10041000000020000000e000020032000001200087
:100420002002880014000700ad0007000000e00073
:1004300003003a00e08121000100200002003700a3
:100440000000200001002000810f70000100320038
:1004500014000700000020000000e000020032004d
:10046000000002000000000032170200000000003f
:100470000040da000000fe004440a90020012000f6
:100480000000e0000300320000002000a00188000e
:100490004440a800000006008a1f78008b1f7800e7
:1004a0000000060091018800800478000000eb0045
:1004b0001a003700e284440032a0b4009905ba0063
:1004c000e284440032a0b4009906ba00e2844400f9
:1004d00032a0b4000006eb00476fde00fd07b2005b
:1004e000636ce10003003a00ebff07000000eb0043
:1004f0000a003700606ce10004003a00005deb0088
:100500008b05e900fdff3e00040037006168e10053
:10051000010032000086eb000b00070019c7ba008b
:100520001905ba000e04e00003003a000a00e000da
:10053000e0ff3a0000000600fe07b2009e018800be
:100540008a047800f5ff3700395dba008b05e900b1
:100550000c003200295dba008b05e900080032006a
:100560000c00e00003003a00e284440032a0b40032
:10057000f5ff370019ddba008b05e900faff3a00f4
:100580008904e800e184440032a0b40000000600c1
:10059000000000000000000000000000000000005b
:1005a000000000000000000000000000000000004b
:1005b000801f78000000fa001011800062006000c7
:1005c0000000e000020032002222a9000b003700e8
:1005d00010118000680060000000e00007003a0091
:1005e00010118000640060000000e00003003a0089
:1005f000301180000040780048e8b7008560a9000d
:100600000080fa004f007800004006000040da0049
:100610000000fe000a00fa0011002000b1bf9f0098
:10062000c0bf9f006a805700a70607004fb8970019
:100630000080fa00000006000a00fa0051002000c5
:10064000b1bf9f00c0bf9f006a805700a00607008f
:100650005fb897000080fa0000000600889fbe0087
:1006600080047800c04880000000e00004003a00e8
:100670000e0007000084eb000000e00008003500d9
:10068000c84880000900e00005003200090044006d
:10069000060007000000e00001003d000084eb00c0
:1006a000080078004f04be000000060080007800bb
:1006b0000100e00003003a0000002000c04888006c
:1006c000000005000080eb0002002000828f500037
:1006d00002003e00c14888000000eb000000060058
:1006e000000005006022b800060220000000d000d3
:1006f0008180d2000482d2008582d2000000a00056
:100700000202520083825a000300310002024200ba
:1007100083824a000000a1000603e900f3ff3a00cb
:1007200000000600889fbe000004780001007800e9
:100730008204780088017800090178001100200007
:100740000e000700890f5000010032000004eb008a
:10075000080078004f04be00000006000000fa0008
:10076000e88157004fb997004187200020392000c9
:10077000220207000080fa0000000600889fbe00e9
:100780008a9fbe008c9fbe008e1f780000067800f6
:100790000104780002007800830478000881b90021
:1007a000020778000200e000420032000800e0008a
:1007b0004100320082057800c90090006900900075
:1007c000808f5000040039000900780050000700b5
:1007d0000000e00029003500004020001900600002
:1007e0000a0032000b017800a10020000c00780004
:1007f00036000700800678000d00e0000600320099
:10080000610516000a854600040037000b057800d4
:100810008006eb00010037000b05780049009000ce
:10082000e9009000808050008a8f50000200310063
:10083000010578008006eb000a0178008c00780042
:100840002c0007008a855500490090000a004000ee
:10085000c00498000d00e000040032000900780098
:10086000d50007000000e00004003a000b00e000a3
:10087000020032000a064600cfff37000080200049
:10088000190060000200320009007800ca00070069
:1008900000c02000190060000200320049009000f2
:1008a000e00498008b055700110009008885d800e6
:1008b000010037000000eb004f0778004f06be0034
:1008c0004f05be004f04be000000060003003700c5
:1008d000b0cf1000050032000201e900800178006d
:1008e0000200e000faff3a00000005000300780073
:1008f000000006008001780002003700b15978003e
:100900000201e9000200e000fcff3a0000000600de
:10091000889fbe008a1f780000047800c8009000fd
:10092000680190000000eb00828f50003c0039000d
:10093000180078002200290002016000e20f510037
:1009400007003200012020000000e0000100350017
:1009500001202400008c70000080eb003000370084
:100960000200260002006000820f500009003a00d9
:1009700038009000808f5000060039000800780091
:100980008d000700800078000080eb000100e0008f
:1009900023003a001805780000c020000000650020
:1009a00018003a00a80490006002200008004000ef
:1009b000808f540013003a00002020000b03070032
:1009c000200498000000e00005003a002904980087
:1009d000490498008904e8003904980008003700a9
:1009e0000a60a0000a0c7800400498000120200052
:1009f0008080400031049800400c9800500c980012
:100a00000c00070028009000500498003800900067
:100a10006004980000002600180c70000000eb0035
:100a20004f0578004f04be0000000600c05b2000a8
:100a30009c003700881f7800489120001804e000cf
:100a400003003a00f9ff070020c0b300004c780013
:100a50004f04780000000600889fbe000004780064
:100a6000080078005400070080047800000420008b
:100a70001800600002003200280090007602070093
:100a80000000eb0020049800384090000004e000d3
:100a9000050035000000fb00defe07000000e0005e
:100aa000010032008084eb00181090000000e0008c
:100ab00008003200e0fe07000000e0000100320004
:100ac0008084eb0018109000630207000000eb0028
:100ad0001014980000082000180060001500320073
:100ae0000001eb006000b800438c20000202d0003f
:100af00063027a00880f520005003a0000004000af
:100b000081804800008041000008eb0006003700ab
:100b100061004000e08048000201e800e80f50005a
:100b2000e08f5800f0ff3a00080078004a02070002
:100b30000e003700000c780000c0eb003044980035
:100b40006002200008004000200498004004980043
:100b500050049800400c980060049800500c9800d5
:100b60007004980076004400000c9800090078009a
:100b70004f04be0000000600881f78000004eb0050
:100b80006140b800e2ff2f00f3ff2f009c05070033
:100b9000228d2000620078000000e0000100320099
:100ba000adff07000804e800e80f5400f4ff3a0026
:100bb0004f04780000000600889fbe000004780003
:100bc0000800e0000f003a008004eb000904780000
:100bd0008800d000408c2000610078000000e00018
:100be00004003200f4ff07000000e00001003d00b7
:100bf0008084eb000804e800e80f5400f4ff3a009a
:100c00002500370000002200180060008004eb007f
:100c100021003200a80490000f00370009015100a4
:100c2000384090000000fb0089007800ab09070005
:100c30000000e00007003c002800900040049800fd
:100c400060049800500c98001890a0008084eb007d
:100c5000110037008084440048019000828f5400c6
:100c6000eeff3900280090004004980098007800ba
:100c700002c020000281600001003a0038009000ac
:100c800001e8a30002003200600498000100370070
:100c9000500c98008004eb00090078004f04be005f
:100ca00000000600010020000100e0000800320002
:100cb000010080000100e000050032008100e90031
:100cc000010088008100d0000200800000b178009f
:100cd00000000600889fbe00000478000203be00ea
:100ce0008104780008027800890178001200200051
:100cf0000600be0088040700890f50000100320082
:100d00000004eb00080078004f04be00000006005d
:100d10006800fa00889fbe008a9fbe0080047800a9
:100d200001047800820578000305780084007800cb
:100d300000f92f000f00400075040700d98f9f00b5
:100d4000fb8f9f000000eb00a09f9f00e88f9f009b
:100d50009a84fb000904fb008904ea00cf4cde0002
:100d600050022000800f54000d003200e18f54002b
:100d70000b003a00090178008a0078007f8897000c
:100d8000df89970003000100f08f9f000000e00062
:100d9000950032002f9897000000e800a09f9f0068
:100da0000905450050022000800f54000400320065
:100db0000800e000e6ff3a002f9897008b0037000c
:100dc0000000eb00809f9f00f0979f00e0979f003e
:100dd000d0979f00c0979f00b0979f0007003700f3
:100de000a19020000100500000004000e18f200091
:100df00061007800cf98970001007000c09f9f00ad
:100e00000a04780008057800ba4478008900fb00dd
:100e1000a09020001f0207000000e000f0ff3a0051
:100e2000a1c2b30081cf54000e003a008f88970012
:100e30000180e900808f9f0010007800b09f9f0024
:100e40000000e00005003d000000ea00b09f9f00a8
:100e50004f9897000020a000c09f9f000804e80062
:100e600010003700b09f9f00880078000000eb0062
:100e700005003700f3ff2700830f50000200320007
:100e80006a02b9000400410001047800880078007b
:100e90003101fb000203b100e90f5100f5ff3600fc
:100ea000b09f9f00e0c2b300984f100002003200d4
:100eb0000080eb0019003700a0c2b300d84f10002b
:100ec00007003a008f8897000180e900808f9f001b
:100ed00010007800909f9f000804e8001000370081
:100ee0000000eb00909f9f0088007800050037000d
:100ef000f3ff2700830f5000020032006a02b9009e
:100f00000400410001047800880078003101fb00f2
:100f10000203b100e90f5100f5ff3600909f9f00da
:100f2000984478008900fb00608f2000d9010700f9
:100f30000000e000020032000804e8000100370071
:100f40008044eb00a97f9f0080c6b30080cf54008f
:100f500006003a0098cf140010003a006640500096
:100f6000a07f9f000804e8000c003700c0c6b30053
:100f700080cf540009003a0098cf140007003a00cf
:100f800067404000d84f100002003a006e40500009
:100f90000100370010c7b300a07f9f001801fb00bd
:100fa000c3fb2f008f81410001f92f008f8040008b
:100fb00020f92f000f004000150007000000e0009e
:100fc00009003a00c1fb2f008f80400020f92f005c
:100fd0000f004000f40207000000e00002003500ae
:100fe0000805e8005aff37000080eb004f05be00ff
:100ff0004f04be000080fa000000060003027800e3
:101000008201780001017800a166200040ff3700ce
:10101000889fbe008a9fbe00e4c6b300844f510083
:10102000be00320010003c006b425200844f510061
:101030001800320005003c0054c2b300844f510038
:10104000f600320084c5b3000f00370044c6b30079
:10105000844f51001400320065424200844f510019
:10106000f1003a001000370004c7b300844f51006c
:10107000dd0032005600350065424200844f5100c9
:101080005300320063424200844f5100e6003a00b0
:101090004f0037001181e90082087800a008900015
:1010a00012417800de003700006a9000c5c6b30028
:1010b000854f520007003a00910278006482520086
:1010c000840878001402be004fabde00860378006f
:1010d0001400370015c7b300854f520003003a00d3
:1010e000110478006802540005003700a5c6b3005b
:1010f000854f520006003a0091047800688254003f
:10110000840878005403be004402be000500370086
:101110001182e9008408780014027800cfa2de0072
:10112000612bb9000498be000690be008068900054
:1011300088c6b30088cf50000d00320028c6b30027
:1011400088cf500004003a000402fb00cfa2de006a
:10115000612bb9000800370048c7b30088cf5000a2
:10116000030032006644440088cf500004003a0077
:10117000cfa2de00612bb9000498be000690be002d
:101180003002be002003be00a0089000e00f520015
:10119000e08f5a00e00f5b00e08f5b0002003d0033
:1011a000d4c2b30008003700301290000418a30026
:1011b00002003200b4c2b300030037000408a300e9
:1011c0005100320004c2b30084f178004c003700b3
:1011d000006a9000c5c6b300854f520008003a006f
:1011e0001105780064025500840878001404be00dc
:1011f0006055b8000802be000a03be0014003700a4
:1012000015c7b300854f520003003a0091047800df
:101210006882540005003700a5c6b300854f520010
:1012200006003a001105780068025500840878002d
:101230005403be004402be00050037001182e900dd
:1012400084087800140278008002eb006033b80054
:101250000498be000690be008068900088c6b30067
:1012600088cf50000d00320028c6b30088cf500050
:1012700004003a000482fb008002eb006033b800f7
:101280000800370048c7b30088cf50000300320081
:101290006644440088cf500004003a008002eb000e
:1012a0006033b8000498be000690be00b0109000f5
:1012b0000138a300140032003002be002003be003b
:1012c000e00f5200e08f5a00e00f5b00e08f5b0000
:1012d0000d00320081c7b300814f5100030032007e
:1012e00081c5b300814f510007003a00a00890006b
:1012f00004c3b30084f178008100e80082f1780033
:101300008100e80021089800a00890008181410038
:1013100073009800824078003e003700806990009a
:10132000c4c6b3001181e90084cf5100220032000d
:101330000a003c006442520084cf51002500320074
:1013400004c2e80084cf510013003200684252000a
:1013500084cf51001e003a000a00370044c7b30092
:1013600084cf51001b0032006642420084cf5100fe
:10137000180032006942520084cf510014003a0034
:101380000500370082087800920078002060900005
:10139000804878002c00370082087800920078009e
:1013a00010129000cfa2de00612bb9008498be001d
:1013b0008690be00240037008208780092007800f2
:1013c00010119000cf91de008288be001e00370011
:1013d0001181e900820878009200780010109000d6
:1013e00080087800180037001181e9008208780031
:1013f00012027800cfa2de00612bb9000498be0073
:101400000690be00a0089000818141007300980002
:1014100081c7b300b50007000b003700a00890009b
:1014200082f1780006003700a00890008181410019
:101430000204e00001003a0052c2b3008249780081
:101440008100e800210898000000eb004f05be0075
:101450004f04be00000006000000e0002f00320034
:10146000c0017800e38f51002c0036000308a30070
:101470002a003a00914880000100e000020032009a
:10148000810f50000400310011009800904888003e
:101490001600370082007800110190000200e00081
:1014a00002003200800f5100faff3900110278006b
:1014b00084824000850f500018003900808f520050
:1014c00003003a008308420001007800070037005b
:1014d0000200e0000300320083014000830f51004e
:1014e0000e003900120098009000980090009000c3
:1014f0000100e0000900320010014000828f50001e
:1015000006003a00029120000009eb00100178006b
:1015100011084100910090001100980000000600a1
:10152000889fbe0000047800814880000100e00030
:1015300002003200010078000d0037009148800061
:101540002091200004003700910f54002500360040
:101550000180e800910090000100e000faff3a00ed
:1015600010003700920f54001e0036000280e80081
:10157000100178000200e000faff3a001101780043
:10158000914880002091200004003700910f540002
:10159000140036000180e80091009000828f500016
:1015a000faff3a00b9488000888f540001003100ea
:1015b0008804780009007800420007000000e0007d
:1015c00004003a00888f5400050032008904d100dd
:1015d000f5ff3700091878009fff0700d2ff37009a
:1015e0000000eb004f04be0000000600881f7800da
:1015f000630440000800a1008000eb00800f54004d
:1016000021003600e30f540001003e004800200096
:1016100008007800c2ff07008000eb000000e00037
:101620001900320090007800910178006481510027
:10163000880f51000300310011019000020878006a
:1016400007003700088140000208780091019000ef
:10165000130198001001780011091400880878001f
:10166000100178000000eb000200e00004003200ee
:10167000920190000300e000010032000280e800c7
:10168000804888008180e800010078004f047800dd
:1016900000000600020037000304e00006003200ec
:1016a0000001780002007800b041780081cf51003d
:1016b000f9ff3a00010037000001eb00020078005a
:1016c00000000600800078000000eb000100e00050
:1016d0000500340001007800e0fb0700e10f400046
:1016e00001003a000000eb0000000600fc87470004
:1016f000889fbe008a9fbe008c9fbe008e1f780010
:101700000006780080c5b30080cf50000a00320088
:101710007740400080cf50000a003200694040000e
:1017200080cf50000b003200508e200080bf9f0001
:10173000ae0020000a003700428d200082bf9f00cb
:1017400006003700538e200083bf9f008e002000cc
:1017500003003700548e200084bf9f000e0120003c
:101760003c02be002c03be000605be000404be0001
:1017700040c6b30080cf50000300320065404000f7
:1017800080cf50000b003a00e00f5200e08f5a006b
:10179000e00f5b00e08f5b0006003d006000b800da
:1017a0006011b800040450008584580006055900f3
:1017b00087855900e80f57000400320040002000e0
:1017c000f00f570038003a000100370030002000c9
:1017d000e00f5400e08f5c00e00f5d00e08f5d00e3
:1017e00004003a008c1090008d0120000100e00000
:1017f000060032008e00e900888060008fba9700f2
:10180000e5c07800f1ef9f007d01200080007800a6
:101810008100e900050033008b05d1000a85d30063
:101820008984d3000884d300f9ff3700089ebe00e6
:101830000a96be00120037008d06e9008e00e9000e
:10184000848060000fb99700e2c1780082fd2f000c
:101850000f01410003f17e00800078008100e90063
:10186000050033008783d1000683d3008582d3002f
:101870000482d300f9ff3700049ebe000696be0026
:101880003c02be002c03be00e00f5200e08f5a0065
:10189000e00f5b00e08f5b008b0034000d00e00088
:1018a000e5ff3c00880037000c68900081c6b3005b
:1018b000814f50000b00320006003c000004e000a5
:1018c00008003200e6c05000814f50004e003a0040
:1018d00004003700c1c6b300814f50004a003a00ef
:1018e000210037000800e00004003a000c109000ce
:1018f0008d0120000000e000060032001100090008
:101900000e84d8000fb99700e2c07800f1ef9f0075
:101910007d012000110009000e84d8000a00370064
:10192000110009000e04d8008d06e9000e81b900ef
:10193000020454008fb8970061417c0081fd2f00a4
:101940008f80400082f07e00000478000800e000f4
:10195000020032000d00e000f1ff3c00cfc4de00c9
:10196000614db90025003700e00f5400e08f5c00a6
:1019700004003a000c1090008d0120000000e000ef
:10198000070032006171b9000800be0019020700ab
:101990008fb99700e3417800f3ef9f007d012000ad
:1019a0006171b9000800be004efb07000b00370054
:1019b0006171b9000800be00ff0107008d06e90053
:1019c00000f1b900020454000fba9700e4427c0011
:1019d00084fd2f000f02420005f27e000004be00cd
:1019e000e00f5000e08f5800020032000d00e000d0
:1019f000efff3c004fcdde008a057800089ebe0058
:101a00000a96be0030003700e00f5400e08f5c0003
:101a1000e00f5d00e08f5d0004003a000c109000c4
:101a20008d0120000000e000090032006172b90061
:101a3000612bb9000800be000a01be009602070033
:101a40000fba970064427800f4ef9f007d012000f8
:101a50006172b900612bb9000800be000a01be0026
:101a6000860207000d0037006172b900612bb900d2
:101a70000800be000a01be008b0207008d06e900c7
:101a800000f2b900040454008fba970065427c004c
:101a900085fd2f008f82420084f27e00009ebe00f2
:101aa0000296be003c04be002c05be00e00f5400b0
:101ab000e08f5c00e00f5d00e08f5d00020034000d
:101ac0000d00e000e8ff3c00e80f570010003a006e
:101ad0003c1090000038a3000d003200f78f560034
:101ae00006003e0085fd2f008f824200e5c07e008b
:101af00000c3b30080cf5000050032008d06e9001e
:101b000002c3b30081fd2f008f80400082f07e0071
:101b100078811600420e98007c00900083fd2f0013
:101b20008f8141008d80410072fb07004c089000be
:101b30008c109000810f500006003d000080500086
:101b4000300e98003c1090000040a1003016980024
:101b50000f0037000100e0000d003d00bc109000b8
:101b6000f4806000f08f500009003a002c119000c2
:101b7000ac089000810051003c0990008280500028
:101b8000008050004240a90001003400300e98004f
:101b90004f0778004f06be004f05be004f04be0041
:101ba000cf01b100000006000400fa00889fbe00cb
:101bb0008a9fbe008c1f7800000478000106780020
:101bc000a8149000280890008084540038089000e1
:101bd0008084540048089000808454005808900085
:101be0008084540068089000808454007808900035
:101bf000808454000002220090bf9f000003230055
:101c0000a0bf9f00381090000028a30015003a00e4
:101c10000900e00013003400090578008a05780007
:101c2000e20f5500010036002b002000c801900093
:101c30000b017800ee80570068009000030001005f
:101c4000600498000000e000aa0032001810900024
:101c50000b004000101498000b0555004240a900ed
:101c6000eeff3c00280990000200e0000c00340068
:101c7000c80190008c00780068009000030001000b
:101c8000600498008080eb000000e0009a003200c1
:101c900098109000280890000080400010149800d0
:101ca000380d90000a00e000110034008a05780029
:101cb000e20f5500010036002b002000c801900003
:101cc0000b017800ec8057006800900003000100d1
:101cd000600498000000e0008600320018109000b8
:101ce0000b004000101498000b055500edff370065
:101cf00008699000c808900050c6b300804f51009a
:101d000008003a000100e00015003400580290007d
:101d100008099000980990006800900004000100f4
:101d2000070037000100e0000d003400c8019000fa
:101d300001017800f80090006800900003000100a5
:101d4000600498008080eb000000e0006a00320030
:101d500098109000480890000080400010149800ef
:101d6000580d90000a00e000110034008a05780048
:101d7000e20f5500010036002b002000c801900042
:101d80000b017800ec805700680090000300010010
:101d9000600498000000e000560032001810900027
:101da0000b004000101498000b055500edff3700a4
:101db000086990006808900051c6b300814f510037
:101dc0000d003a000000e0001c0034007801900093
:101dd000c8089000010141006111b800828fd20053
:101de0008381d20058029000800078006800900043
:101df00004000100090037000000e0000f0034007b
:101e000078019000c808900081004100c80190004e
:101e10000001780068009000030001006004980051
:101e20008080eb000000e00033003200981090004a
:101e3000680890000080400010149800780d900011
:101e40000a00e000110034008a057800e20f550016
:101e5000010036002b002000c80190000b01780023
:101e6000ec805700680090000300010060049800b7
:101e70000000e0001f003200181090000b0040002e
:101e8000101498000b055500edff37003810900036
:101e90008000eb000028a300170032000900e000da
:101ea0001500340009057800e28f54000100360067
:101eb0002a002000c80190000a017800ee80570037
:101ec0006800900003000100600498000000e0003a
:101ed00008003200181090000a004000101498000a
:101ee0008a8454004240a900eeff3c008000eb00d1
:101ef000010037008080eb00010078004f06780079
:101f00004f05be004f04be000080fa00000006002e
:101f10000108780000000600e6874700889fbe00a1
:101f20008a9fbe008c9fbe008e1f780082bf9f00dc
:101f300004047800029ab900f4b79f000400e0009e
:101f4000590032000fb997000200e000570032003c
:101f50000006be0004077800c800900068009000ea
:101f6000808f5000040039000800780068fa0700ec
:101f70000000e0003b003500004020001800600039
:101f80000a0032008e017800a20020000c00be0082
:101f90006e0007000005be000080750007003200db
:101fa0008c0455008904e800050037008e04780091
:101fb0000a0020000b002000010037008e0478008a
:101fc000480190006800900002005000890f500006
:101fd00003003100800478000a0020000b0020007c
:101fe0006111b800828fd2008381d200090278008b
:101ff0000c00be0038000700090757004800900099
:1020000009004000400498000a8575000400320071
:1020100008007800e8fa07000000e00011003a002c
:102020000e00e0000f0032006148b800808fd2003f
:102030008180d2000000780000f0a1008c01d00067
:102040000001d000028641004220a80081864e0097
:102050004200a9004220ae004200a8000c86d30036
:10206000bdff370000802000180060000200320031
:1020700008007800d0fa070000c0200018006000b7
:1020800002003200c8019000630498007fb09700fe
:102090000e0750000fb99700110009000287d80001
:1020a00080017800010037008001eb000300780018
:1020b0004f0778004f06be004f05be004f04be001c
:1020c0006f00b1000000060000c0da00000006004a
:1020d00000c0da00000006003400f8000203be0071
:1020e000820270008502720002f0a60000f0a600d5
:1020f0008100e800a10188001500b200080032004c
:10210000105978000402e9000d003200610040001f
:10211000fbff39003420ec0000002800f8ff3700f6
:10212000101978000482e9000500320062004000c6
:10213000fbff39003420ec0000002800f8ff3700d6
:102140003400f9000601be00000006000300e000b4
:1021500007003200a5018000a1018800104278002c
:10216000a50188000402fb00820f5200110032001a
:102170008301e900a5018000a101880010427800d8
:10218000a50188000404e000080032000002780085
:102190001000b00000026a004260af0000f0a00032
:1021a0000482d2000180b000e8ff37000000200068
:1021b0000100200000000600839f68000100e0008d
:1021c00002003d0060001000e08018000300e00005
:1021d00002003d0060011100e081190041f9070093
:1021e0004f00e00002003b0060001000e08018009b
:1021f000000006003bf907000400be0000000600d6
:10220000020ab900001bb9000200b80081004200b8
:102210008100430000000600889fbe008a9fbe0028
:1022200030044200b0844a0030054b0090854b00da
:102230006000b1000898be000a90be000440e100b2
:1022400005c8e10006d0e10007d8e1000200310036
:10225000680040001008e8004f05be004f04be00b3
:1022600000000600889fbe008a9fbe003004be00aa
:102270002005be000418540005985c0006185d0097
:1022800007985d00110020000440e10005c8e1004e
:1022900006d0e10007d8e100010039008000eb0022
:1022a000108810004f05be004f04be00000006005d
:1022b0001200fa00889fbe008a9fbe008c9fbe005d
:1022c000e0b79f00f1b79f0082bf9f0093bf9f00c0
:1022d0000605be000404be000000eb00d0b79f005e
:1022e000c0b79f00b0b79f00a0b79f0090b79f00f6
:1022f000000678005fb19700cfb0970082014100df
:102300003fb097000200e00004003d0037000700e6
:102310007e805700c0ff070003003700330007002e
:102320007e805700cfff0700dfb697000d00e0006a
:102330000c0035006fb29700ffb297000fbb9700fb
:102340009fbb970010002000010020006011b80022
:1023500000027200818272000203730083837300a3
:102360001b0007000c06e80001042000810f560046
:10237000e0ff3a000d00e00004003d000802be004e
:102380000a03be007e805700a3ff07005fa89700e6
:102390000000e00005003a001fb29700afb29700be
:1023a0003fb39700cfb39700090007006fb09700c5
:1023b000ffb097000fb997009fb997004f06be0076
:1023c0004f05be004f04be000080fa00000006006a
:1023d0000100070000000600a4b79f00b5b79f00ea
:1023e000c6b79f00d7b79f00000006004f09de0068
:1023f00082817100b3b79f004f01de0081804000f1
:1024000082807000a1b79f008fb097004f09de0057
:10241000000040000200700090b79f007fa8970066
:102420004f01de00818040008280700081b79f00f4
:102430000d0007004f3ade0000004000040070006d
:10244000f0af9f00080007000402420085824a00a6
:1024500006034b0087834b00dfff07000802be0026
:102460000a03be00000006002fb29700bfb297001b
:102470004fb39700dfb3970000000600881f780075
:1024800018002000881f780089ff07008f87e90067
:102490004f04780000000600801feb0084ff070057
:1024a0008f87e90000000600889fbe008a9fbe005b
:1024b000e00f5000e08f5800e00f5900e08f590006
:1024c0000c003d006044b8006055b80000005400a6
:1024d00081805c0002015d0083815d0018002000a6
:1024e0001500070008003d00180007000004eb007d
:1024f000050037000004eb000f00070002003d005c
:102500001200070018002000dcff07000800e000b0
:10251000060032006022b8006033b80000005200ac
:1025200081805a0002015b0083815b004f05be0081
:102530004f04be0000000600e00f5200e08f5a007a
:10254000e00f5b00e08f5b00000006006044b80015
:102550006055b8000402540085825c0006035d00eb
:1025600087835d0000000600889fbe008a9fbe0032
:102570008c1f7800e00f5000e08f5800e00f5900ea
:10258000e08f59000d003d006044b8006055b80070
:102590000000540081805c0002015d0083815d00c9
:1025a0001c0020000820e10009a8e1000ab0e100b9
:1025b0000bb8e1000d003d00080037000006eb00fd
:1025c000e00f5200e08f5a00e00f5b00e08f5b00ed
:1025d00006003d006044b8006055b8000402540095
:1025e00085825c0006035d0087835d00aaff07000b
:1025f0000c00e000060032006022b8006033b80032
:102600000000520081805a0002015b0083815b0060
:102610004f0678004f05be004f04be0000000600c4
:020000040000fa
:10262000257500003b250000753b00002575000066
:102630003b250000753b0000257500003b25000090
:042640007500000021
:020000040000fa
:102644000200fa00004f78001e80fb006100600069
:10265400004078000004e00002003200cd02a8002f
:1026640001003700cd02a9001e80fb00620060005b
:102674000000e00002003200cd22a8000100370073
:10268400cd22a9001e80fb00640060000000e00071
:1026940002003200cd42a80001003700cd42a9005b
:1026a4001e80fb00680060000000e00002003200b1
:1026b400cd62a80001003700cd62a9000080fa00b5
:1026c400000006000200fa00004f7800cce2a900e6
:1026d400cce2a8001e407800d9ff07008038210012
:1026e4000100200050030700cce2a9000080fa009a
:1026f400000006000000fa0041168000f0032f00dd
:10270400008060004016880061168000f0032f00ee
:10271400008060006016880030c0b300e9ff070045
:1027240030c0b300e7ff070030c0b300e5ff070087
:1027340020c0b300e3ff070020c0b300e1ff07009f
:1027440080c0b300dfff07000040eb00ddff07009f
:1027540080c0b300dbff07000040eb00d9ff070097
:1027640010c0b300d7ff07000040eb00d5ff0700ff
:10277400c0c0b300d3ff07000080fa0000000600c9
:102784000400fa002047980031479800ccc2a90001
:102794003e4090000080fb00e10f50001700320023
:1027a400e10f500003003c000000e000060032008e
:1027b40039003700e20f50001d003200e30f5000d3
:1027c4002800320034003700ae40900000c8b30047
:1027d40000cf40002e4090000080fb000008b000b5
:1027e4004480de00104798001e409000b5ff0700ab
:1027f4001e407800b3ff070027003700ae4090006a
:1028040000ccb30000cf40002e4090000080fb00bd
:10281400000cb0004480de00104798001e40900079
:10282400a8ff07001e407800a6ff07001a00370023
:10283400ae40900040c9b30000cf40002e4090004d
:102844000080fb004009b0004480de00104798007f
:102854001e4090009bff07001e40780099ff070070
:102864000d003700ae40900040cdb30000cf4000d3
:102874002e4090000080fb00400db0004480de003c
:10288400104798001e4090008eff07001e407800fd
:102894008cff0700000000000080fa000000060022
:1028a4000400fa0020479800ae409000014f7800e1
:1028b4002e4090000000fb004480de0000407800c1
:1028c40010479800ccc2a8001e4090007dff07006e
:1028d4001e4078007bff07000080fa00000006001d
:1028e4000400fa00100798009e009000010f780081
:1028f400040037001e007800104078001e0fe80026
:10290400e7ff07001e007800104078000004e00094
:10291400f8ff3a000080fa00000006000a00fa00fe
:102924002047980031479800424798005347980041
:102934006447980075479800064f9800174f980011
:102944002e4090000080fb00e20f50006200320035
:10295400e30f5000c8003200e10f500024013a0098
:1029640040c0b30057ff07000040eb0055ff0700cd
:10297400ccc2a8003e4090000080fb004400de0072
:10298400004f7800be409000114798001e40780028
:102994004cff07001e4090004aff07004e40900085
:1029a4000080fb004400de00004f7800ce40900021
:1029b400114798001e40780042ff07001e40900017
:1029c40040ff07005e4090000080fb004400de00f2
:1029d400004f7800de409000114798001e407800b8
:1029e40038ff07001e40900036ff07006e4090003d
:1029f4000080fb004400de00004f7800ee409000b1
:102a0400114798001e4078002eff07001e409000da
:102a14002cff07007e4090000080fb004400de0095
:102a2400004f7800fe409000114798001e40780047
:102a340024ff07001e40900022ff07000e4890006c
:102a44000080fb004400de00004f78008e489000b8
:102a5400114798001e4078001aff07001e4090009e
:102a640018ff07001e4890000080fb004400de00b1
:102a7400004f78009e489000114798001e4078004f
:102a840010ff07001e4090000eff07000ef897008d
:102a94000080fb004400de00004f78008ef89700b1
:102aa400114798001e40780006ff07001e40900062
:102ab40004ff0700ccc2a9000040eb0001ff07009f
:102ac40010c0b300fffe070000122a0071002000ae
:102ad40055020700c600370040c0b300f9fe0700e6
:102ae40080c0b300f7fe0700ccc2a8003e409000af
:102af4000080fb004400de00004f7800be409000e0
:102b0400114798001e407800eefe07001e4090001a
:102b1400ecfe07004e4090000080fb004400de0005
:102b2400004f7800ce409000114798001e40780076
:102b3400e4fe07001e409000e2fe07004e409000b5
:102b44000080fb004400de00004f7800ce4090007f
:102b5400114798001e407800dafe07001e409000de
:102b6400d8fe07005e4090000080fb004400de00b9
:102b7400004f7800de409000114798001e40780016
:102b8400d0fe07001e409000cefe07006e4090006d
:102b94000080fb004400de00004f7800ee4090000f
:102ba400114798001e407800c6fe07001e409000a2
:102bb400c4fe07007e4090000080fb004400de005d
:102bc400004f7800fe409000114798001e407800a6
:102bd400bcfe07001e409000bafe07000e4890009d
:102be4000080fb004400de00004f78008e48900017
:102bf400114798001e407800b2fe07001e40900066
:102c0400b0fe07001e4890000080fb004400de0078
:102c1400004f78009e489000114798001e407800ad
:102c2400a8fe07001e409000a6fe07000ef89700bd
:102c34000080fb004400de00004f78008ef897000f
:102c4400114798001e4078009efe07001e40900029
:102c54009cfe0700ccc2a9000040eb0099fe0700cf
:102c640010c0b30097fe070000122a007100200074
:102c7400ed0107005e00370040c0b30091fe07007d
:102c840000c0eb008ffe0700ccc2a8003e409000bd
:102c94000080fb004400de00004f7800be4090003e
:102ca400114798001e40780086fe07001e409000e1
:102cb40084fe07004e4090000080fb004400de00cc
:102cc400004f7800ce409000114798001e407800d5
:102cd4007cfe07001e4090007afe07005e409000d4
:102ce4000080fb004400de00004f7800de409000ce
:102cf400114798001e40780072fe07001e409000a5
:102d040070fe07006e4090000080fb004400de006f
:102d1400004f7800ee409000114798001e40780064
:102d240068fe07001e40900066fe07007e4090008b
:102d34000080fb004400de00004f7800fe4090005d
:102d4400114798001e4078005efe07001e40900068
:102d54005cfe07000e4890000080fb004400de008b
:102d6400004f78008e489000114798001e4078006c
:102d740054fe07001e40900052fe07001e489000bb
:102d84000080fb004400de00004f78009e48900065
:102d9400114798001e4078004afe07001e4090002c
:102da40048fe07000ef897000080fb004400de0098
:102db400004f78008ef89700114798001e40780065
:102dc40040fe07001e4090003efe0700ccc2a90052
:102dd4000040eb003bfe070010c0b30039fe0700c3
:102de40000122a00710020008f010700000000007b
:102df4000080fa00000006000200fa00004f78008c
:102e0400ccc2a8000040eb002efe07001e40e900e3
:102e14002cfe0700ccc2a9000080fa0000000600c6
:102e24000000fa00ccc2a9000040eb0025fe070018
:102e340010c0b30023fe07000080fa000000060063
:102e44000000fa00ccc2a9000040eb001dfe070000
:102e540020c0b3001bfe07000080fa00000006003b
:102e64000400fa00000f78001107980000582200af
:102e740001002000d00007002c010700411680004b
:102e8400f0ff20000080600040168800611680007a
:102e9400f0ff200000806000601688000000eb0056
:102ea4004801070000408800100020004501070089
:102eb40010408800200020004201070020408800c4
:102ec400300020003f01070030408800400020000f
:102ed4003c010700404088005000200039010700f1
:102ee4005040880048c8bf000000fb004104200097
:102ef400810f50003b00320041042000810f50003c
:102f04000d003c0021042000810f50002d003200f0
:102f140021042000810f50002e003c00a10220005b
:102f2400810f50001100320011042000810f500065
:102f340020003200d9ff370061042000810f5000c7
:102f44003000320061042000810f50002900350058
:102f540071042000810f50002e00320081042000f3
:102f6400810f50002f003200ccff37005540800005
:102f740044408000334080002240800011408000a3
:102f840000408000851f7800841f7800831f78002c
:102f9400821f7800811f7800801f7800003129008b
:102fa400801f7800ecf50700ee8757004868ef00b3
:102fb400200037006016800000c0a0006016880062
:102fc4001c0037006016800000c0a1006016880055
:102fd400180037006016800000d0a000601688003a
:102fe400140037006016800000d0a100601688002d
:102ff400100037006016800000e0a0006016880012
:103004000c0037006016800000e0a1006016880004
:10301400080037006016800000f0a00060168800e9
:10302400040037006016800000f0a10060168800dc
:083034000000000099ff3700c5
:020000040000fa
:10303c004a08000002000000000000000008000028
:10304c004a000000000000004c080000880000004e
:10305c0002000000010000000072080073087200fa
:10306c000872080072087200086208000000000074
:10307c000000000000000000000000000000000044
:10308c0000000000000000000002080001019a008e
:10309c00089b08009a089a00089a08009a088a0067
:1030ac00080000000000000000000000000000000c
:1030bc000000000000000000000000000000020002
:1030cc0008020200c208c30008c20800c208c200fd
:1030dc0008c20800b2080000000000000000000058
:1030ec0000000000000000000000000000000000d4
:1030fc00000000004c087400089c08000000000050
:10310c000000000000000000000000001409000096
:10311c000200000000000000f60800001a00000089
:10312c0002000000686a6c00747a4c000000010018
:10313c000002000004000800001000000000200045
:10314c002b2d2300300000001609000002000000a7
:10315c000200000004000000100900000400000040
:10316c0000000000d4080000220000000200000053
:10317c0030313200333435003637380039414200b3
:10318c0043444500460030003132330034353600bc
:10319c003738390061626300646566000000000026
:1031ac0018090000020000000000000000000000f0
:020000040000fa
:1031bc000400fa00008fbe00401680000080a100c1
:1031cc00401688004136800000fe2f000080600011
:1031dc003000b30040368800401680000090a000fc
:1031ec00401688002135800000fe2f000080600012
:1031fc009000b3002035880021e2a9002002a9002c
:10320c000111800090ff2f000080600000118800e9
:10321c001e01be00404b2c00410020002ef5070083
:10322c00000078000000e900401188002342a8004b
:10323c0011118000f0f32f00008060001011880045
:10324c009560a8008560a90041058000000027005a
:10325c00010070004005880021e2a8000080fa00ff
:10326c00000006000200fa00004f78000000000089
:10327c001111800000202000008060000000e000a0
:10328c00fbff3a001e00fb00201188000080fa00b2
:10329c00000006000400fa00100798009e00900041
:1032ac00010f7800040037001e00780010407800f1
:1032bc001e0fe800ebff07001e007800104078009e
:1032cc000004e000f8ff3a000080fa00000006005d
:1032dc000800fa00100798002107980032079800a0
:1032ec000000eb00000f7800070037002e00900064
:1032fc0010407800ae0090008100e8002107980093
:10330c00d8ff07001e0fe8009e0078003e009000da
:10331c00808f5000f5ff39003e0090000080fa00cd
:10332c00000006000000fa00001680003000b30018
:10333c000016880040168000f000b300401688008c
:10334c006119800000fc2f0000806000601988006b
:10335c0021e3a9002143a80001198000f0cf2f0020
:10336c00008060000019880001198000f0f12f0026
:10337c0000806000001988002043a9002023a900c8
:10338c0011198000f0ff21000080600010198800e6
:10339c0011198000f0cf2f000080600010198800f8
:1033ac0028e3a90025e3a90030c1b30024e3b7004a
:1033bc0021e3a8000080fa00000006000200fa00d9
:1033cc00000f78001e007800004078007f406000fd
:1033dc000080fb007f0060004219800001fe2f007e
:1033ec008100610001007000401988002023a800b2
:1033fc008038210001002000090007002023a900cb
:10340c000000000000198000610060000000e00076
:10341c00fcff3200001880000080fa00000006005b
:020000040000fa
:10342c00f03fb1000180b10006003500ee03090049
:10343c0000000000403fb1000180b100fbff3d00e7
:10344c001000b000203fb0000200350000800900e1
:08345c00000000000000060062
:020000040000fa
:0200000401f009
:04000000ffffff00ff
:020000040000fa
:0200000401f009
:04000800ffffff00f7
:020000040000fa
:0200000401f009
:04000c00820000006e
:020000040000fa
:0200000401f009
:04001000a500000047
:020000040000fa
:0200000401f009
:040014005f00000089
:020000040000fa
:0200000401f009
:04001800f7000000ed
:020000040000fa
:0200000401f009
:04001c00dfff000002
:00000001FF
